:020000040800F2
:10000000600A00206D0100081B04000813040008AA
:1000100017040008A7020008910A00080000000069
:10002000000000000000000000000000410900087E
:10003000AB020008000000001F0900082D0A00089C
:100040008701000887010008870100088701000870
:100050008701000887010008870100088701000860
:100060008701000887010008870100088701000850
:100070008701000887010008870100088701000840
:100080008701000887010008870100088701000830
:100090008701000887010008870100088701000820
:1000A0008701000887010008870100088701000810
:1000B0008701000887010008870100088701000800
:1000C00087010008870100088701000887010008F0
:1000D00087010008870100088701000887010008E0
:1000E00087010008870100088701000800F002F876
:1000F00000F02CF80AA090E8000C82448344AAF196
:100100000107DA4501D100F021F8AFF2090EBAE893
:100110000F0013F0010F18BFFB1A43F0010318473B
:10012000E0150000F0150000002300240025002643
:10013000103A28BF78C1FBD8520728BF30C148BF4A
:100140000B6070471FB51FBD10B510BD00F076F8ED
:100150001146FFF7F7FF00F09DFC00F094F803B4A0
:10016000FFF7F2FF03BC00F097F800000948804752
:1001700009480047FEE7FEE7FEE7FEE7FEE7FEE789
:10018000FEE7FEE7FEE7FEE704480549054A064BA1
:1001900070470000310A0008ED00000860040020EC
:1001A000600A002060060020600600204FF0013C3D
:1001B00050F8042B51F8043B9A4221D1A2EB0C03D6
:1001C000934313EACC1317D150F8042B51F8043B96
:1001D0009A4215D1A2EB0C03934313EACC130BD133
:1001E00050F8042B51F8043B9A4209D1A2EB0C03BE
:1001F000934313EACC13DBD04FF00000704700BFED
:10020000D01A01BAB1FA81F101F0180122FA01F015
:10021000CB40C1F12001DBB2C0B2C01A2CFA01F30D
:10022000D11A914311EAC311E6D170477047704764
:100230007047000000487047000400207546FFF733
:10024000F9FFAE4605006946534620F00700854693
:1002500018B020B5FFF798FFBDE820404FF000062A
:100260004FF000074FF000084FF0000B21F007019E
:10027000AC46ACE8C009ACE8C009ACE8C009ACE8E1
:10028000C0098D46704710B50446AFF30080204684
:10029000BDE81040FFF763BF01491820ABBEFEE781
:1002A00026000200704700BFFEE7704700B5034616
:1002B00003E04FF47A7000F005F8181EA3F1010373
:1002C000F7D100BD00EBC001C9004FF0E022516141
:1002D000002191610521116100BF4FF0E021096902
:1002E00001F480310029F8D004214FF0E02211619F
:1002F00070472DE9F041024600250026002000232A
:100300000024002791F803C00CF00F0591F803C0FA
:100310000CF0100CBCF1000F03D091F802C04CEAB5
:10032000050591F800C0BCF1000F31D01468002021
:100330002BE04FF0010C0CFA00F3B1F800C00CEA0E
:1003400003069E4220D183004FF00F0C0CFA03F7F6
:10035000BC4305FA03FC4CEA040491F803C0BCF169
:10036000280F06D14FF0010C0CFA00FCC2F814C0A3
:100370000AE091F803C0BCF1480F05D14FF0010C21
:100380000CFA00FCC2F810C0401C0828D1D314603D
:10039000B1F800C0BCF1FF0F34DD546800202EE03E
:1003A00000F1080C4FF0010808FA0CF3B1F800C096
:1003B0000CEA03069E4221D183004FF00F0C0CFA89
:1003C00003F7BC4305FA03FC4CEA040491F803C0AC
:1003D000BCF1280F05D100F1080C08FA0CF8C2F89E
:1003E000148091F803C0BCF1480F07D100F1080C4C
:1003F0004FF0010808FA0CF8C2F81080401C0828D9
:10040000CED35460BDE8F0810AB1016100E04161E2
:10041000704700BFFEE700BFFEE7704700200CE01A
:10042000002106E00022064B03EBC0135A544A1C7D
:10043000D1B28029F6DB421CD0B20828F0DB70472D
:10044000000000202DE9F04304460D4616461F46E5
:10045000284638E0224631E0002A2DDB7F2A2BDCBB
:10046000002829DB3F2827DC4FEAE07C00EB5C7C9E
:100470004FEAEC0CDFF8588008EBCC1C1CF802C0EB
:1004800003464FEAE07800EB58784FEAE808A0EB23
:10049000C8094FF0010808FA09F82CEA080C0146CF
:1004A0004FEAE07800EB58784FEAE808DFF8209050
:1004B00009EBC81808F802C0511C0AB2A1199142F0
:1004C000CADC411C08B2E9198142C3DCBDE8F083F3
:1004D0000000002038B5002406E0002500E06D1C77
:1004E000B5F57A7FFBD3641CB4F57A7FF5D301218F
:1004F000082000F015FA14208DF8030003208DF871
:1005000002004FF48070ADF8000069460848FFF71C
:10051000F0FE4FF40070ADF8000069460448FFF7A4
:10052000E8FE012000F0BCF9012000F0C5F938BD5B
:10053000000C014070B50546002411E080212141E6
:10054000294009B1012100E00021084600F0B4F97A
:10055000012000F0A5F9002000F0A2F9601CC4B24F
:10056000082CEBDB012000F09BF9002000F098F94B
:1005700070BD10B5012000F09FF9012000F090F946
:10058000002000F099F9002000F08AF910BD10B5A4
:10059000002000F091F9012000F082F9012000F024
:1005A0008BF910BD10B5FFF795FFAE2000F090F964
:1005B000D52000F08DF9802000F08AF9A82000F005
:1005C00087F93F2000F084F9D32000F081F9002062
:1005D00000F07EF9402000F07BF9A12000F078F9CE
:1005E000C82000F075F9DA2000F072F9122000F04E
:1005F0006FF9812000F06CF9CF2000F069F9D92063
:1006000000F066F9F12000F063F9DB2000F060F9FA
:10061000302000F05DF9A42000F05AF9A62000F087
:1006200057F98D2000F054F9142000F051F9AF2053
:1006300000F04EF9FFF7F2FE00F01EF910BD70B5A4
:1006400005460C4645F0B00000F042F9102141EAA1
:10065000141000F03DF904F00F0000F039F970BDFE
:10066000F8B506460F4614461D46082D0CD1A4F1D8
:1006700020000E4901EB001010230822394600909B
:10068000304600F063F80FE0062D0DD1A4F12000F4
:1006900000EB4000064901EB4000082306223946E2
:1006A0000090304600F052F8F8BD0000040B00083E
:1006B000F41000082DE9FC478046894616460027BD
:1006C00000200190002538E0705D01A9C855781C14
:1006D000C7B2032F2FDB002700240BE004EBC4017B
:1006E000184A02EB810001A9FFF760FD00B90BE099
:1006F000601CC4B204EBC401124A02EB810012A1D7
:10070000FFF754FD0028E9D100BF681C032190FBCE
:10071000F1F0401E08EB00100FFA80FA04EBC40061
:10072000084901EB8000001D10231A46494600903D
:10073000504600F00BF8681CC5B2705D0028C3D1AC
:10074000BDE8FC872E130008000000002DE9FF4FD4
:1007500080460E469146DDF834B0002500244A4616
:1007600031464046039BFFF76DFE00BF5EE000256B
:1007700058E008EB0500002852DB08EB05007F2855
:100780004EDC3046F11706EB5171C9100FB2F1176C
:1007900006EB5171C910A6EBC10A002E05DA781ECE
:1007A00007B20AF108000FFA80FA3819002817DB9F
:1007B0003819072814DC3819224901EBC01008EB5E
:1007C0000501405C04FB09511BF8011001FA0AF114
:1007D000084339191B4A02EBC11108EB0502885482
:1007E0003819401C00281BDB3819401C072817DC6F
:1007F0003819401C134901EBC01008EB0501405C9F
:1008000004FB09511BF80110CAF108021141084309
:100810003919491C0B4A02EBC11108EB0502885437
:10082000681CC5B24D45A4DB601CC4B20399481EC8
:10083000C11700EB5171012202EBE101A14296DCEC
:10084000BDE8FF8F000000202DE9F04106468846F4
:1008500015461F46002409E02A5D04FB076108B223
:100860003B464146FFF7FCFE601CC4B2285D0028F1
:10087000F2D1BDE8F081000010B500240BE00021AA
:100880002046FFF7DCFE054901EBC410802100F093
:100890002FF8601CC4B2082CF1DB10BD0000002052
:1008A00010B5044622464FF480710248FFF7ACFDB4
:1008B00010BD0000000C014010B5044622464FF464
:1008C00000710248FFF7A0FD10BD0000000C0140C0
:1008D00010B50446FFF74DFE7820FFF72BFE0020F1
:1008E000FFF728FE2046FFF725FEFFF750FE10BD5C
:1008F00070B505460E46FFF73CFE7820FFF71AFE5E
:100900004020FFF717FE002404E0285DFFF712FEE9
:10091000601CC4B2B442F8DBFFF739FE70BD70470B
:1009200029B1064A92690243044B9A6104E0034AE2
:1009300092698243014B9A617047000000100240A7
:10094000704710B500F002F810BD00000CB5002093
:10095000019000903348006840F4803031490860CD
:1009600000BF3048006800F4003000900198401C3F
:100970000190009818B90198B0F5A06FF1D12948FD
:10098000006800F4003010B10120009001E0002068
:1009900000900098012843D12348006840F01000DF
:1009A000214908600846006820F0030008600846F6
:1009B000006840F0020008601A4840681949486021
:1009C0000846406848600846406840F480604860D7
:1009D0000846406820F47C1048600846406840F4AF
:1009E000E81048600846006840F08070086000BF6A
:1009F0000C48006800F000700028F9D009484068F1
:100A000020F00300074948600846406840F00200B3
:100A1000486000BF0348406800F00C000828F9D186
:100A20000CBD000000100240002002407047000092
:100A300010B51348006840F00100114908600846ED
:100A40004068104908400E494860084600680E4951
:100A500008400B4908600846006820F480200860C0
:100A60000846406820F4FE0048604FF41F0088608C
:100A7000FFF767FF4FF000600449086010BD0000F9
:100A8000001002400000FFF8FFFFF6FE08ED00E056
:100A900000BFFEE708B5FFF785FD20E010A210219A
:100AA0001920FFF707FE082311A220210A20FFF7D3
:100AB000CBFEFFF7E1FE40F6B830FFF7F7FBFFF79C
:100AC000ADFC0F4840231A46002100900F20FFF78D
:100AD0003DFEFFF7D1FE40F6B830FFF7E7FBDDE75C
:100AE000E99D92E88EB2E4B88DE5A49CE781AF0061
:100AF00049443A6D305F373433343334353800008D
:100B0000FE140008000000000000000000000000CB
:100B100000000000000000F80000000000000033AA
:100B20003000000000160E00160E0000000000004D
:100B30000000000040C07840C0784000043F04043A
:100B40003F040400007088FC08300000001820FFFB
:100B5000211E0000F008F000E018000000211C0336
:100B60001E211E0000F00888700000001E212324B2
:100B700019272110000000160E00000000000000E0
:100B800000000000000000E0180402000000000760
:100B90001820400000020418E00000000040201867
:100BA00007000000404080F0804040000202010F3A
:100BB00001020200000000F0000000000101011F1E
:100BC00001010100000000000000000000B0700002
:100BD0000000000000000000000000000001010112
:100BE00001010101000000000000000000303000A1
:100BF000000000000000000080601804006018067B
:100C00000100000000E010080810E000000F1020B4
:100C100020100F00001010F8000000000020203FFE
:100C20002020000000700808088870000030282488
:100C30002221300000300888884830000018202029
:100C400020110E000000C02010F80000000704244E
:100C5000243F240000F80888880808000019212093
:100C600020110E0000E0108888180000000F1120ED
:100C700020110E0000380808C83808000000003FA6
:100C8000000000000070880808887000001C222105
:100C900021221C0000E010080810E00000003122B2
:100CA00022110F00000000C0C00000000000003052
:100CB00030000000000000C0C0000000000080B054
:100CC00070000000000080402010080000010204B5
:100CD000081020004040404040404000040404040C
:100CE00004040400000810204080000000201008C8
:100CF00004020100007048080808F00000000030FD
:100D000036010000C030C828E810E000071827248A
:100D100023140B000000C038E0000000203C230238
:100D20000227382008F8888888700000203F20209B
:100D300020110E00C03008080808380007182020CD
:100D40002010080008F808080810E000203F2020C4
:100D500020100F0008F88888E8081000203F2020A5
:100D60002320180008F88888E8081000203F200099
:100D700003000000C03008080838000007182020D1
:100D8000221E020008F808000008F808203F210190
:100D900001213F20000808F8080800000020203F3B
:100DA0002020000000000808F8080800C0808080AB
:100DB0007F00000008F888C028180800203F2001A4
:100DC0002638200008F8080000000000203F2020FE
:100DD0002020300008F8F800F8F80800203F003F15
:100DE000003F200008F830C00008F808203F20002D
:100DF00007183F00E01008080810E0000F1020203E
:100E000020100F0008F808080808F000203F210112
:100E100001010000E01008080810E0000F18242469
:100E200038504F0008F8888888887000203F2000DC
:100E3000030C302000708808080838000038202192
:100E400021221C00180808F8080818000000203F9C
:100E50002000000008F808000008F808001F202003
:100E600020201F000878880000C8380800000738D4
:100E70000E010000F80800F80008F800033C070025
:100E8000073C0300081868808068180820302C038D
:100E9000032C30200838C800C83808000000203F64
:100EA0002000000010080808C83808002038262153
:100EB00020201800000000FE020202000000007F57
:100EC00040404000000C30C0000000000000000165
:100ED0000638C00000020202FE0000000040404050
:100EE0007F0000000020100804081020000000000F
:100EF00000000000000000000000000080808080F2
:100F000080808080000204080000000000000000D3
:100F10000000000000008080808000000019242272
:100F200022223F2008F8008080000000003F1120AE
:100F300020110E000000008080800000000E1120B3
:100F400020201100000000808088F800000E112091
:100F500020103F200000808080800000001F22229F
:100F600022221300008080F0888888180020203F0B
:100F7000202000000000808080808000006B94941E
:100F80009493600008F8008080800000203F2100DA
:100F900000203F2000809898000000000020203FA3
:100FA00020200000000000809898000000C0808091
:100FB000807F000008F8000080808000203F24022D
:100FC0002D302000000808F8000000000020203F1D
:100FD000202000008080808080808000203F2000D2
:100FE0003F20003F008080008080000000203F21E3
:100FF00000203F200000808080800000001F202013
:1010000020201F00808000808000000080FFA12041
:1010100020110E000000008080808000000E112052
:1010200020A0FF80808080008080800020203F21E1
:101030002000010000008080808080000033242494
:1010400024241900008080E0808000000000001F40
:10105000202000008080000000808000001F2020F1
:1010600020103F20808080000080808000010E30B2
:101070000806010080800080008080800F300C0313
:101080000C300F0000808000808080000020312E16
:101090000E312000808080000080808080818E70F2
:1010A0001806010000808080808080000021302CA4
:1010B0002221300000000000807C020200000000BD
:1010C000003F404000000000FF0000000000000062
:1010D000FF0000000002027C800000000040403F52
:1010E0000000000000804040800000800000000000
:1010F000000101000000000000000000002F0000BF
:1011000000000700070000147F147F1400242A7FCA
:101110002A12002313086462003649552250000049
:101120000007000000001C224100000041221C00BA
:101130000014083E08140008083E0808000000A03B
:101140006000000808080808000060600000002037
:1011500010080402003E5149453E0000427F400015
:10116000004261514946002141454B31001814129B
:101170007F10002745454539003C4A494930000168
:101180007109050300364949493600064949291EB7
:101190000000363600000000563600000008142219
:1011A0004100001414141414000041221408000219
:1011B00001510906003E4955592E007C1211127C3E
:1011C000007F49494936003E41414122007F41416B
:1011D000221C007F49494941007F09090901003E5D
:1011E0004149497A007F0808087F0000417F41009B
:1011F000002040413F01007F08142241007F404011
:101200004040007F020C027F007F0408107F003EF8
:101210004141413E007F09090906003E4151215EDE
:10122000007F091929460046494949310001017FDB
:101230000101003F4040403F001F2040201F003F71
:101240004038403F00631408146300070870080723
:1012500000615149454300007F41410000020408FC
:101260001020000041417F00000402010204004000
:1012700040404040000001020400002054545478D3
:10128000007F4844443800384444442000384444F3
:10129000487F00385454541800087E090102001891
:1012A000A4A4A47C007F080404780000447D4000CE
:1012B000004080847D00007F102844000000417FB2
:1012C0004000007C04180478007C0804047800388E
:1012D0004444443800FC242424180018242418FC16
:1012E000007C0804040800485454542000043F447F
:1012F0004020003C4040207C001C2040201C003C42
:101300004030403C004428102844001CA0A0A07C91
:10131000004464544C440000087F41000000007FFA
:1013200000000000417F0800000804081008EFBC1E
:101330008C00000000000000000000000000000021
:10134000000000005838000000000000000000000D
:101350000000E380820000000000000000000000A8
:101360000000000000000000182424180000000005
:10137000000000000000E4BDA000008060F807400D
:1013800020180F08C80808281800010000FF0010E6
:101390000C0340807F0001061800E5A5BD00101079
:1013A000F01F10F000808282E2928A868000402244
:1013B00015081661000040807F0000000000E4B8BE
:1013C0009600202020FE2020FF202020FF2020202B
:1013D00020000000007F40404744444447404040D4
:1013E0000000E7958C00000000FE929292FE92921F
:1013F00092FE0000000008080484621E010001FE45
:10140000020404080800E99D9200404454545454D6
:10141000547F5454545454444000000000FF1515A8
:1014200015151555957F00000000E88EB2000404E4
:1014300014640F24A46434E42F2424240400004101
:10144000211F20484949497F494949494800E4B892
:101450008D0000020202028242F20E428202020269
:10146000000010080402010000FF00000001020C4F
:101470000000E5A49C00040484E41C0405C63CA40C
:101480002424E4040400020100FF008281462810A5
:10149000294641808000E781AF00807000FF201066
:1014A00004040404FC0404040400806018070830E9
:1014B000000040807F000000000000000000FF01ED
:1014C00001013109090909897101010101FFFF8049
:1014D00080808080809681808080808080FFFF0176
:1014E000818181FD8991A1C1FD81818101FFFF8001
:1014F0008080809F888482819F80808080FFFFFF22
:10150000FFFFFFFFFFFEFFFFFFFFFFFFFFFEFFFFED
:10151000FFFFFFFFFFFEFFFFFFFFFFFFFFFEFFFFDD
:10152000FFFFFFFFFFFEFFFFFFFFFFFFFFFEFFFFCD
:10153000FFFFFFFFFFFEFFFFFFFFFFFFFFFEFFFFBD
:10154000FFFFFFFFFFFEFFFFFFFFFFFFFFFEFFFFAD
:10155000FFFFFFFFFFFEFFFFFFFFFFFFFFFEFFFF9D
:10156000FFFFFFFFFFFEFFFFFFFFFFFFFFFEFFFF8D
:10157000FFFFFFFFFFFEFFFFFFFFFFFFFFFEFFFF7D
:10158000FFFFFFFFFFFEFFFFFFFFFFFFFFFAFFFF71
:10159000FFFFFFFFFF9CFFFFFFFFFFFFFFFE3FFF7F
:1015A000FFFFFFFFFFFE3FFFFFFF7FFFF0003FFF5A
:1015B000FFFFDEFFF0001FFFFFFFBDFFE0001FFF8A
:1015C000FFFFF1FFE0001FFFFFFD70DFC0001FFF06
:1015D000FFF9709F80003FFFFFEBE03F80003FFF7F
:1015E000FFF1407E00003FFFFFF1C03F00003FFFE2
:1015F000FFF000FF00007FFFFFF000FF00001FFF73
:10160000FFF000BF00001FFFFFF0003F00001FFFC2
:10161000FFF0003F80000FFFFFF0003F80000FFF52
:10162000FFF0007F8000000FFFF0007F80000001CE
:10163000FFF81CFF800000007FF800FF8000000022
:101640003FF801FF8000000003F803FF8000001F47
:10165000E3FA07FF8000003FF9F80FFF8000003F2A
:10166000FF781FFF8000003FFF9801FF8000001FF0
:10167000FFC8007F8000003FFFF8003E8000007F31
:10168000FFFF001E800000FFFFFFC01E800000FF64
:10169000FFFFE00C000001FFFFFFF000000001FF72
:1016A000FFFFF000000003FFFFFFF000000003FF5A
:1016B000FFFFF000000003FFFFFFE000000003FF5A
:1016C000FFFFCFF9FF8003FFFFFFFC00007A03FF5D
:1016D000FFFFF000000003FFFFFFF000000003FF2A
:1016E000FFFFF000000003FFFFFFF800000003FF12
:1016F000FFFFF800000103FFFFFFF80000000000FB
:101700001017000800000020600A000028010008EF
:04000005080000ED02
:00000001FF
