:020000040800F2
:100000007009002005010008950F0008870D000801
:10001000910F00088D0700087B1700080000000002
:100020000000000000000000000000005114000863
:100030009107000800000000A112000855150008F3
:100040001B0100081B0100081B0100081B01000820
:100050001B0100081B0100081B0100081B01000810
:100060001B0100081B0100081B0100081B01000800
:100070001B0100081B0100081B0100081B010008F0
:100080001B0100081B0100081B0100081B010008E0
:100090001B0100081B0100081B0100081B010008D0
:1000A0001B0100081B0100081B0100081B010008C0
:1000B0001B0100081B0100081B0100081B010008B0
:1000C0001B0100081B0100081B0100081B010008A0
:1000D0001B010008591500081B0100081B0100083E
:1000E0001B0100081B0100081B010008DFF810D0ED
:1000F00000F02AFB00480047BD210008AFF3008054
:100100007009002005480047FEE7FEE7FEE7FEE72E
:10011000FEE7FEE7FEE7FEE7FEE7FEE7ED0000088C
:10012000D2B201E000F8012B491EFBD27047002239
:10013000F6E710B513460A4604461946FFF7F0FFE6
:10014000204610BD2DE9FE4F804681EA0300C00F16
:100150000C46009021F0004123F00045B8EB02006E
:10016000A94105D24046214690461C460B46024610
:1001700023F00040104347D0270DC7F30A00C3F314
:100180000A510290401A019040286BDAC3F3130021
:1001900040F4801B0098924620B10023D2EB030A62
:1001A00063EB0B0B01985946C0F14002504600F03A
:1001B00076F906460D4650465946019A00F07EF9FA
:1001C00010EB08006141002487EA115284EAE773CA
:1001D0001A4340D0009A62B3019A012A4FEA0752AB
:1001E00015DC001B61EB02014FF0004202EA0752EE
:1001F000CDE90042001C41F5801132462B4600F04B
:10020000B5F903B0BDE8F08F40462146F9E7001B81
:1002100061EB0201001C41F5801300185B412018BE
:10022000A2F5001747EB030140EAD570B6196D41FE
:1002300011E06D084FEA360645EAC0754FEA0752ED
:10024000001B61EB0201001C41F5801149084FEAD7
:1002500030000019514132462B4603B0BDE8F04F43
:1002600000F075B90098012240000023D0EB020293
:1002700063EBE073009821464FEAE074B8EB0000AE
:1002800061EB0401E9E783F000435BE781F00041A3
:1002900058E72DE9FE4F81EA030404F0004421F001
:1002A000004100944FF0000B23F0004350EA01049A
:1002B0005ED052EA03045BD0C3F30A54C1F30A557B
:1002C0002C44A4F2F3340194A0FB0254C1F31301B3
:1002D00041F48011C3F3130343F4801301FB024480
:1002E00000FB034E840A970A44EA815447EA835785
:1002F000A4FB076802958D0A05FB07854FEA932C3E
:1003000004FB0C542705029D4FEA065847EA1637AE
:10031000B5EB08056EEB070C870E920E47EA8117C6
:1003200042EA8312A7FB0201B6EB0B0164EB000467
:100330002B0D43EA0C335E1844EB1C50DA46514651
:10034000E7FB0201C5F313044FEA0B3343EA1453EE
:100350004FEA0432019C43EA0603A4F10C04029420
:10036000009CCDE900B400F001F903B0BDE8F08FC6
:1003700000200146F9E70EB5C10F80EAE07008449D
:10038000CA07002140F233438DE80E000A460B46AF
:1003900000F0ECF803B000BD0EB540F2334102911D
:1003A0000021CDE900110A460B4600F0DFF803B04A
:1003B00000BD00F0004230F000400AD0C10D01F550
:1003C0006071C0F3160042EA0151C20840071143B0
:1003D000704700200146704701F0004330B421F01F
:1003E000004150EA010206D00A0DA2F56072C1F385
:1003F0001301002A02DC30BC00207047440F44EA9D
:10040000C104C100E01830BC00EBC25000F068B875
:1004100030B50B46014600202022012409E021FAD4
:1004200002F59D4205D303FA02F5491B04FA02F5D1
:100430002844151EA2F10102F1DC30BD2DE9F05F68
:100440000546002092469B46884606468146402443
:100450001BE0284641464746224600F087F95346AE
:100460005A46C01A914110D311461846224600F050
:1004700016F82D1A67EB01084F462246012000218D
:1004800000F00DF817EB00094E41201EA4F1010405
:10049000DFDC484631462A464346BDE8F09F202A25
:1004A00004DB203A00FA02F1002070479140C2F1CB
:1004B000200320FA03F3194390407047202A06DBFB
:1004C000CB17203A41FA02F043EAE07306E041FA22
:1004D00002F3D040C2F12002914008431946704710
:1004E0000029A8BF7047401C490008BF20F0010048
:1004F000704710B4B0FA80FC00FA0CF050EA010426
:1005000004BF10BC704749B1CCF1200421FA04F4B7
:1005100011FA0CF118BF012121430843A3EB0C0190
:10052000CB1D4FEA00614FEA102042BF002010BCF3
:10053000704700EBC35010440029A4BF10BC7047A3
:10054000401C490008BF20F0010010BC704710B5E6
:10055000141E73F1000408DA401C41F100019218E6
:100560005B411A4301D120F0010010BD2DE9F04D8F
:1005700092469B4611B1B1FA81F202E0B0FA80F2E4
:1005800020329046FFF78BFF04460F4640EA0A00F0
:1005900041EA0B0153465A46084313D0114653EA29
:1005A000010019D0C8F14002504600F0DFF80546BE
:1005B0000E46504659464246FFF771FF084305D0A4
:1005C000012004E020463946BDE8F08D00200543B7
:1005D00046EAE0762C4337430A986305E40AA0EB29
:1005E00008000022FD0A44EA47540A3002D50020E0
:1005F0000146E9E7010510196941DDE908450019DF
:100600006941BDE8F04DA2E72DE9F04D81EA030410
:1006100004F0004B21F0004514464FF0000A23F08F
:10062000004150EA050220D054EA01021DD0C5F372
:100630000A570246C5F31303C1F31300C1F30A5668
:1006400040F4801543F48013A7EB0608101BD64630
:1006500008F2FD3873EB050002D308F1010801E050
:1006600092185B41B8F1000F03DA00200146BDE8A3
:10067000F08D00204FF48011064684460EE0171BD3
:1006800073EB050705D3121B63EB050306434CEA26
:10069000010C49084FEA300092185B4150EA01070B
:1006A000EDD152EA030012D082EA040083EA050188
:1006B000084305D0101BAB4106D20122002306E0FF
:1006C00000224FF0004302E06FF0010253101AEBDA
:1006D00006004CEB085110EB0A0041EB0B01BDE8A2
:1006E000F04DFFF734BFC1F30A52C1F3130140F2DA
:1006F000FF3341F480119A4202DA0020014670472C
:1007000040F233439A42A2F2334202DC524200F0FA
:100710002DB8FFF7C4BE000030B5041E71F100040F
:1007200004DB4FF00044404264EB0101141E73F1FE
:10073000000405DB1C464FF00043524263EB040308
:10074000994208BF904230BD064C074D06E0E06874
:1007500040F0010394E8070098471034AC42F6D308
:10076000FFF7C8FC88370008A8370008202A04DBF8
:10077000203A21FA02F00021704721FA02F3D0401A
:10078000C2F12002914008431946704700BFFEE7BE
:1007900070472DE9F0410246002500260020002385
:1007A0000024002791F803C00CF00F0591F803C056
:1007B0000CF0100CBCF1000F03D091F802C04CEA11
:1007C000050591F800C0BCF1000F31D0146800207D
:1007D0002BE04FF0010C0CFA00F3B1F800C00CEA6A
:1007E00003069E4220D183004FF00F0C0CFA03F752
:1007F000BC4305FA03FC4CEA040491F803C0BCF1C5
:10080000280F06D14FF0010C0CFA00FCC2F814C0FE
:100810000AE091F803C0BCF1480F05D14FF0010C7C
:100820000CFA00FCC2F810C0401C0828D1D3146098
:10083000B1F800C0BCF1FF0F34DD546800202EE099
:1008400000F1080C4FF0010808FA0CF3B1F800C0F1
:100850000CEA03069E4221D183004FF00F0C0CFAE4
:1008600003F7BC4305FA03FC4CEA040491F803C007
:10087000BCF1280F05D100F1080C08FA0CF8C2F8F9
:10088000148091F803C0BCF1480F07D100F1080CA7
:100890004FF0010808FA0CF8C2F81080401C082834
:1008A000CED35460BDE8F08141617047016170476B
:1008B0002DE9F04106460F4614461D46DDF8188026
:1008C00026E0102C06D143462A463946304600F031
:1008D000ADF813E0182C06D143462A463946304677
:1008E00000F01CF90AE0202C06D143462A4639467E
:1008F000304600F095F901E0BDE8F0813019C6B24C
:10090000C4F18000B04202DA00263819C7B2AD1C2B
:1009100028780028D5D100BFEEE700002DE9F84F78
:1009200006460F4692469946DDF828B04FF000087B
:1009300000240025AAF1200000F0FF087F2E02DD30
:100940000026B81CC7B2B9F1100F30D100242BE03B
:10095000BBF1000F05D004EB08103249085C009091
:1009600006E004EB08102F49085CC043C0B20090B9
:10097000002515E0802028410099084038B13A1937
:10098000D1B27219D0B2012200F02AFC06E03A1965
:10099000D1B27219D0B2002200F022FC681CC5B29C
:1009A000082DE7DB601CC4B2102CD1DB35E0B9F1B7
:1009B000080F30D100242BE0BBF1000F05D01A48FE
:1009C00000EBC800005D009006E0174800EBC8008F
:1009D000005DC043C0B20090002515E08020284192
:1009E0000099084038B13A19D1B27219D0B2012237
:1009F00000F0F6FB06E03A19D1B27219D0B200222B
:100A000000F0EEFB681CC5B2082DE7DB601CC4B229
:100A1000082CD1DB01E0BDE8F88F00F019FB00BF26
:100A2000F9E70000A0290008A82600082DE9FF4FDB
:100A300083B080468946924618200190002562E0E6
:100A400005EB0510344911F810009AF8001088429F
:100A500057D105EB0510304901EB400040789AF87A
:100A6000011088424DD1002448E0069840B105EBC2
:100A70000510294901EB4000801C005D029009E04F
:100A800005EB0510244901EB4000801C005DC043CC
:100A9000C0B2029000262DE080203041029908402B
:100AA00098B1274604EBD77209EB6202D1B2A34694
:100AB00004EBDB725210A4EB420208EBC202324498
:100AC000D0B2012200F08CFB12E0274604EBD77273
:100AD00009EB6202D1B2A34604EBDB725210A4EB25
:100AE000420208EBC2023244D0B2002200F078FB8E
:100AF000701CC6B2082ECFDB601CC4B2202CB4DB45
:100B000004E0681CC5B20198854299DB00BF00F083
:100B10009FFA07B0BDE8F08F902F00082DE9FE4F37
:100B20000746884691469B460620029000256DE0C8
:100B300005EB850000EB4510384911F8100099F8D5
:100B40000010884260D105EB850000EB4510334969
:100B500001EB4000407899F80110884254D10024FC
:100B60004FE0BBF1000F0AD005EB850000EB45100C
:100B70002A4901EB4000801C10F804A00BE005EBB3
:100B8000850000EB4510254901EB4000801C005D0D
:100B9000C04300F0FF0A00262FE08020304100EA29
:100BA0000A00A0B1032094FBF0F04044C0B20190D1
:100BB000032094FBF0F100FB114007EBC000304430
:100BC000C0B201220090019900F00AFB13E003205B
:100BD00094FBF0F04044C0B20190032094FBF0F18C
:100BE00000FB114007EBC0003044C0B2002200906F
:100BF000019900F0F5FA701CC6B2082ECDDB601C1E
:100C0000C4B2482CADDB04E0681CC5B20298854232
:100C10008EDB00BF00F01CFABDE8FE8FC03200087A
:100C20002DE9FF4F83B08046894692460620019009
:100C3000002566E005EB8510364911F810009AF89A
:100C4000001088425BD105EB8510324901EB400072
:100C500040789AF80110884251D100244CE006985F
:100C600040B105EB85102B4901EB4000801C005D75
:100C7000029009E005EB8510264901EB4000801C3D
:100C8000005DC043C0B20290002731E080203841AF
:100C900002990840A8B12646E21704EB927209EBCC
:100CA000A202D1B2A346E21704EB92729210A4EB17
:100CB000820208EBC2023A44D0B2012200F090FA5C
:100CC00014E02646E21704EB927209EBA202D1B2BD
:100CD000A346E21704EB92729210A4EB820208EB97
:100CE000C2023A44D0B2002200F07AFA781CC7B2AD
:100CF000082FCBDB601CC4B2802CB0DB04E0681C86
:100D0000C5B20198854295DB00BF00F0A1F907B09C
:100D1000BDE8F08F7C3400082DE9F84F0546894680
:100D200016461C46DDF828A00027102C05D12046C9
:100D300004EBD071C1F347080BE0082C07D1204623
:100D400004EBD0714910891C01F0FF0801E0BDE8F7
:100D5000F88F13E0CDF800A0F25D234649462846FF
:100D6000FFF7DCFD05EB0800C5B2782D04DD00259A
:100D700009EB040000F0FF09781CC7B2F05D002801
:100D8000E8D100BFE3E700BFFEE7000070B5002434
:100D90000025002600201E4908601E48006820F03B
:100DA00070401C4908600846006840F00040086038
:100DB000042001F085F900BF18E001201449086003
:100DC000032001F07DF900261348D0F81C0108B17A
:100DD000012600E0002646EA4400C4B200200C4987
:100DE0000860032001F06CF9681CC5B2082DE4DB33
:100DF0000848006820F0704006490860084600680E
:100E000040F0004008600A2001F05AF9204670BD09
:100E100098812142000C01400080214210B5134806
:100E2000006820F07040114908600846006840F0F2
:100E30004050086001200E490860042001F040F98C
:100E400001200C49C1F89C01042001F039F900206F
:100E50000749091D0860042001F032F90020054906
:100E6000C1F89801042001F02BF910BD000C0140DD
:100E7000988121420080214210B50F48006820F07F
:100E800070400D4908600846006840F04050086016
:100E900000200A490860042001F012F901200849E5
:100EA000C1F89801042001F00BF901200349086002
:100EB000042001F005F910BD000C01409C81214285
:100EC0000080214270B504461F48006820F0704041
:100ED0001D4908600846006840F040500860002541
:100EE0001BE0002019490860052001F0E9F804F032
:100EF000800020B101201549091D086003E0002091
:100F00001249091D0860012010490860052001F000
:100F1000D7F86006040E681CC5B2082DE1DB00207E
:100F20000A490860042001F0F1F80748006820F041
:100F30007040054908600846006840F000400860BD
:100F4000042001F0E3F870BD000C014098812142BB
:100F500008B50121082000F0A5F9C020ADF8000077
:100F600010208DF8030003208DF802006946054823
:100F7000FFF70FFC0120044908600449C1F89C01F7
:100F800008BD0000000C01409881214200802142F0
:100F900000BFFEE7704710B54FF4A06000F03AF8CC
:100FA00010BD000070B5002100230F22C47804B3E7
:100FB000154C246804F4E064C4F5E064210AC1F12E
:100FC0000403CA40447804FA03F1847814402143AE
:100FD00009010E4C0678A155047804F01F05012480
:100FE000AC4005786D11AD0005F1E025C5F8004174
:100FF00009E0047804F01F050124AC40044D067894
:10100000761145F8264070BD0CED00E000E400E0EC
:1010100080E100E002490143024A1160704700008C
:101020000000FA050CED00E010B5044634B1FF22D3
:101030004FF480610548FFF773F804E04FF48061D6
:101040000248FFF774F800F003F810BD70010020AB
:1010500070B500241BE004F1B000002100F000F99D
:101060000021084600F0FCF80021102000F0F8F8FC
:10107000002508E005EBC411064A505C012100F090
:10108000EFF8681CC5B2802DF4DB601CC4B2082CDC
:10109000E1DB70BD7001002010B500F06BF8C820D6
:1010A00001F00EF800F082F80021AE2000F0D8F830
:1010B0000021084600F0D4F80021102000F0D0F8FC
:1010C0000021402000F0CCF80021B02000F0C8F84A
:1010D0000021812000F0C4F80021FF2000F0C0F8BA
:1010E0000021A12000F0BCF80021A62000F0B8F8F3
:1010F0000021A82000F0B4F800213F2000F0B0F853
:101100000021C82000F0ACF80021D32000F0A8F89E
:101110000021084600F0A4F80021D52000F0A0F836
:101120000021802000F09CF80021D92000F098F8E0
:101130000021F12000F094F80021DA2000F090F86E
:101140000021122000F08CF80021DB2000F088F84C
:101150000021302000F084F800218D2000F080F87C
:101160000021142000F07CF80021AF2000F078F876
:1011700010BD000008B50121082000F093F84FF4DD
:101180003C40ADF8000010208DF8030003208DF8DE
:10119000020069460448FFF7FCFA4FF43C4102485C
:1011A000FFF784FB08BD0000000C014010B54FF4B0
:1011B00080510A48FFF77AFB642000F081FF4FF46A
:1011C00080510648FFF770FB642000F079FF4FF470
:1011D00080510248FFF76AFB10BD0000000C01407F
:1011E000F0B503461446E4B1CD1701EB5575ED108B
:1011F00003EBC515194E755D0A46CE1701EB567601
:10120000F610A1EBC6070126BE40F6B235430846EC
:10121000CE1701EB5676F61003EBC6160F4FBD55F1
:101220001AE0CD1701EB5575ED1003EBC5150B4E0C
:10123000755D0A46CE1701EB5676F610A1EBC60790
:101240000126BE40B5430846CE1701EB5676F61090
:1012500003EBC616014FBD55F0BD00007001002024
:1012600070B504460D462DB14FF480610B48FFF771
:101270001DFB04E04FF480610848FFF715FB4FF4B5
:1012800000610648FFF710FBE0B200F0BBF84FF436
:1012900000610248FFF70AFB70BD0000000C01402E
:1012A0007047000029B1064A92690243044B9A61D3
:1012B00004E0034A92698243014B9A61704700003F
:1012C0000010024030B500210022002400232D4DE3
:1012D0006D6805F00C0121B1042905D0082923D13E
:1012E00005E0294D056022E0274D05601FE0254DF2
:1012F0006D6805F47012234D6D6805F48034022585
:1013000005EB92421CB9214D554305600BE01D4D84
:101310006D6805F400351DB11C4D5543056002E0B4
:10132000194D5543056002E0174D056000BF00BF31
:10133000144D6D6805F0F0010909154D6B5C0568E9
:10134000DD4045600F4D6D6805F4E061090A104D00
:101350006B5C4568DD4085600A4D6D6805F4605141
:10136000C90A0B4D6B5C4568DD40C560054D6D6875
:1013700005F44041890B074D6B5CC568B5FBF3F57F
:10138000056130BD0010024000127A0000093D00E6
:10139000140000202400002070B500250024002047
:1013A000154908601548006820F07040134908602E
:1013B0000846006840F000400860042000F0A6FEE7
:1013C00001200F49C1F89801042000F09FFE01E0C0
:1013D000601CC4B208487C38006808B1642CF7DB94
:1013E000002005490860042000F090FE642C00DA1B
:1013F0000125284670BD000098812142000C014063
:101400000080214270B50446002508251BE004F049
:10141000800028B14FF400410C48FFF747FA04E080
:101420004FF400410948FFF73FFA4FF400510748D5
:10143000FFF73AFA4FF400510448FFF737FA600615
:10144000040E681EC5B2002DE1DC70BD000C014029
:101450007047000010B51648006820F0704014492D
:1014600008600846006840F04050086000201149BC
:101470000860042000F04AFE01200F49C1F89C01D9
:10148000042000F043FE01200A490860042000F017
:101490003DFE00200849C1F89801042000F036FE06
:1014A00000200449091D0860042000F02FFE10BD33
:1014B000000C0140988121420080214210B518485B
:1014C000006820F07040164908600846006840F047
:1014D00040500860002013490860042000F016FE08
:1014E00000201149C1F89C01042000F00FFE0120EA
:1014F0000C490860042000F009FE00200A49C1F8E8
:101500009801042000F002FE0548006820F07040B9
:10151000034908600846006840F00040086010BDBC
:10152000000C01409881214200802142042808D10A
:101530004FF0E021096941F004014FF0E022116110
:1015400007E04FF0E021096921F004014FF0E022AB
:10155000116170477047000010B540F225511D48D9
:1015600000F04AF810B31B4800F002F9C4B21A4860
:10157000008800F40040C8B91748008800F4804093
:1015800060B10A2C03D000201349088020E01248E3
:10159000008840F400401049088019E00D2C06D165
:1015A0000D48008840F480400B49088010E00A484C
:1015B0000088C0F30D0009490C5407480088401CFE
:1015C0000549088008460088C72801DD00200880FA
:1015D00010BD00000038014068000020A800002075
:1015E00021B1828942F40052828104E082894DF661
:1015F000FF731A408281704770B5024600240023B1
:101600000025002040F66A16B14200D100BFC1F3A8
:10161000421501F01F03012606FA03F3012D02D142
:101620009689334006E0022D02D1168A334001E04C
:10163000968A33400C12012606FA04F416883440C8
:1016400013B10CB1012000E0002070BDF0B50346DD
:10165000002400260025002040F66A17B94200D178
:1016600000BF1846C1F3421401F01F06012707FA14
:1016700006F5012C01D10C3004E0022C01D1103010
:1016800000E014301AB107682F43076002E00768D2
:10169000AF430760F0BD00002DE9F04786B0054676
:1016A0000E460024A24600BFA1460027B08900B123
:1016B00000BF2F462C8A4CF6FF700440F08804438C
:1016C0002C82AC894EF6F3100440B088318908436F
:1016D000718908430443AC81AC8A4FF6FF40044053
:1016E000B0890443AC8201A8FFF7ECFD1F48874294
:1016F00002D1DDF810A001E0DDF80CA0A88900F40B
:10170000004040B10AEBCA0000EB0A103168490002
:10171000B0FBF1F807E00AEBCA0000EB0A103168F1
:101720008900B0FBF1F86420B8FBF0F00401200957
:10173000642101FB1089A88900F4004040B13220E7
:1017400000EBC900B0FBF1F000F00700044308E033
:10175000322000EB09106421B0FBF1F000F00F0023
:1017600004432C8106B0BDE8F0870000003801403A
:1017700001468888C0F30800704700BFFEE70000FC
:101780000FB4054B10B503A9044A029800F0EEF817
:1017900010BC5DF814FB0000592100086400002013
:1017A0000FB4084B10B504A902AA039800F0DEF8A4
:1017B000044602A9002000F05CFC204610BC5DF845
:1017C00014FB00007320000802E008C8121F08C1C3
:1017D000002AFAD170477047002001E001C1121FB2
:1017E000002AFBD1704700002DE9FF5F82B0002185
:1017F000DDE90430020DDDF840B0034318D044F6B3
:101800001050A2F2FF3242431514119801281FD044
:10181000A5EB0B00401C5FEA000A4FF000064E4F9C
:10182000DFF83891B046504615D5CAF1000413E0F0
:10183000119801244AA3012801D16FEA0B010298F3
:10184000119AC0E90031C0E9024206B0BDE8F09F3C
:10185000CBF10000DFE704460021404A491842EB83
:101860000450CDE9001012E0E00707D032463B46B5
:1018700040464946FEF70DFD8046894632463B46C6
:1018800010461946FEF705FD06460F466410002C6B
:10189000EAD1DDE90401DDE90023BAF1000F06DA3F
:1018A000FEF7F7FC42464B46FEF7F3FC05E0FEF779
:1018B000ABFE42464B46FEF7A7FE04460E4600220C
:1018C000284BFEF729FF03D84FF0FF30014607E011
:1018D0000022254B20463146FEF734FCFEF703FF7D
:1018E000102409E0002C0ADB0A220023FEF7A6FDE3
:1018F000039B30321A55641E50EA0102F2D1641C77
:10190000039AC4F111031444119A012A03D001224D
:1019100008430DD10AE0084304D000204FF0110B1A
:10192000119072E7A3EB0B056D1E0DE05B4504DD26
:101930004FF0000205F1010504E003DA4FF0000268
:10194000A5F10105002AECD002981199C0E90231F5
:10195000C0E9004579E70000000014400000F03FB6
:10196000300000000000F0430000E03F2DE9FF4F91
:1019700095B09A46884606460025EEE1252877D19F
:1019800000242746F94A0121039400E0044316F895
:10199000013F203B01FA03F01042F7D130782A28AA
:1019A00011D06FF02F033078A0F13002092A16D839
:1019B000039A44F0020402EB820203EB4202104459
:1019C000761C0390EFE758F8042B0392002A03DA01
:1019D000504244F40054039044F00204761C3078E2
:1019E0002E2816D116F8010F44F004042A280DD031
:1019F0006FF02F023078A0F13003092B09D807EBE4
:101A0000870302EB4303C718761CF3E758F8047BFF
:101A1000761C30786C280FD006DC4C2817D068284C
:101A20000DD06A2814D104E0742810D07A280FD180
:101A30000DE044F400140AE044F4801401E044F49E
:101A400040147278824202D104F58014761C761C10
:101A5000307866280BD013DC582877D009DC0028B2
:101A600075D04528F6D04628F4D047281AD193E1FE
:101A700018E0632835D0642879D0652812D18BE12D
:101A8000702873D008DC6728F1D069286FD06E28E1
:101A90000DD06F2806D1ACE073282CD0752874D0F7
:101AA000782853D05246179990476D1C54E1C4F3DF
:101AB0000250022809D003280DD0D8F800100428BD
:101AC0000DD00D6008F1040846E1D8F80010EA17BF
:101AD000C1E90052F6E7D8F800100D80F2E70D706A
:101AE000F0E718F8041B8DF8001000208DF80100B5
:101AF000EB46012003E058F804BB4FF0FF306107CC
:101B00004FF0000102D40DE009F101018946B9420C
:101B10000FDA8145F8DB1BF809100029F4D108E041
:101B200009F1010189468142FADB1BF809100029FD
:101B3000F6D103985346A0EB090721463846179A79
:101B400000F080FA284400EB090507E044E008E1D2
:101B50000DE01BF8010B524617999047B9F10109A6
:101B6000F7D2534621463846179AF2E039E00A2167
:101B7000C4F302524FF0000B0091022A06D058F82D
:101B8000040BC117032A09D00AE023E008F107007B
:101B900020F00702F2E80201904605E000B2C1170A
:101BA000042A01D140B2C117002906DA0A460021F1
:101BB000404261EB02012D2202E0220504D52B22D6
:101BC0008DF80420012203E0E20701D02022F7E78C
:101BD000914657E00A2100E010214FF0000B0091E0
:101BE0000BE010214FF0000B44F004040827009193
:101BF00003E008204FF0000B0090C4F30252022AC9
:101C000005D058F8040B0021032A08D008E008F199
:101C1000070020F00702F2E80201904603E080B2DC
:101C2000042A00D1C0B24FF0000922072AD5327829
:101C3000702A07D0DDF800C08CF0100C5CEA0B0CA9
:101C400005D00EE040228DF80420012208E050EA81
:101C5000010306D030238DF804308DF805200222D0
:101C60009146009B83F0080353EA0B030AD150EA24
:101C7000010201D1620705D530228DF804204FF012
:101C800001097F1E3278582A04D039A20C920CAA7E
:101C900002920BE03BA2F9E75B46009AFEF7CEFB0F
:101CA0000C9B9B5C029A521E0292137050EA010236
:101CB000F2D1029804A9081A00F1200B600702D59E
:101CC00024F4803400E001275F4502DDA7EB0B0020
:101CD00000E0002000EB0B01009003984944401AFB
:101CE0000390E00306D453462146179A039800F068
:101CF000A9F90544002706E001A85246C05D1799DE
:101D000090476D1C7F1C4F45F6DBE0030CD5534616
:101D10002146179A039800F095F9054404E0302015
:101D20005246179990476D1C0099481E0090002953
:101D3000F5DC08E00298029952460078491C0291AD
:101D4000179990476D1CBBF10001ABF1010BF1DC61
:101D50005BE100F065F90544761C307800287FF4DB
:101D60000DAE19B02846BDE8F08F0000092801002B
:101D70003031323334353637383961626364656601
:101D800000000000303132333435363738394142C3
:101D90004344454600000000600700D4062708F1D0
:101DA000070020F00700F0E80223804603F0004C13
:101DB0005FEA0C0001D097A009E0200501D596A0AC
:101DC00005E0E00701D095A001E0AFF24C001390D0
:101DD000307823F0004365280CD006DC452809D074
:101DE00046281DD047287FD13BE0662818D06728B9
:101DF0007AD136E00021112F01DB112000E0781CA0
:101E0000CDE9000104A90CA8FFF7EEFCDDE90D0106
:101E10000C9A4FF0000B07F10109109200914EE06F
:101E20004FF000400097CDE9011004A90CA8FFF77E
:101E3000DBFCDDE90D020C9B0F994FF0000B914686
:101E40001093009211B9791C00EB0109B7EB09005E
:101E500003D4C0F1FF3B07F10109A9EB0700019092
:101E600042E0012F00DA01270021112F01DD1120AE
:101E700000E03846CDE9000104A90CA8FFF7B4FC46
:101E8000DDE90D010C9A00914FF0000BB94610925C
:101E900021070FD4009A4A4503DA914601E0A9F1DF
:101EA0000109B9F1010F05DD109AA9F10101515C99
:101EB0003029F4D0B84202DA10F1040F03DA01211C
:101EC000CDE9011010E0002803DC8344A9EB0001F8
:101ED00002E0411C494500DD8946A0EB0B00401C97
:101EE00001904FF000400290200705D4019848452A
:101EF00002DB4FF0FF30019000208DF84B0002987C
:101F00000DF14B07B0F1004F25D002200C902B2093
:101F10000D90029800280CDA404202902D200D907E
:101F200007E00A210298FEF773FA3031029007F8B1
:101F3000011D0C99481E0C900029F2DC0298002823
:101F4000EFD1791E0D980870307800F0200040F035
:101F5000450007F8020D11A8C01BC01D0290139880
:101F6000007800B1012000EB0901019801EBE0715C
:101F7000029801440398401A401E0390E00306D4DF
:101F800053462146179A039800F05CF805441398CD
:101F9000007818B15246179990476D1CE00323D57D
:101FA00053462146179A039800F04CF805441BE06D
:101FB000BBF1000F07DB0098584504DD1098179916
:101FC00010F80B0001E01799302052469047019815
:101FD0000BF1010B401E05F10105019004D12E20EB
:101FE0005246179990476D1CB9F10001A9F10109FA
:101FF000DEDC05E017F8010B5246179990476D1C7F
:102000000299481E02900029F4DC53462146179A93
:1020100003989EE62D0000002B0000002000000029
:102020002DE9F041044600251E461746880404D4D5
:1020300005E039462020B0476D1C641EF9D52846BE
:10204000BDE8F0812DE9F041044600251E4690468A
:10205000C80301D5302700E02027880404D505E017
:1020600041463846B0476D1C641EF9D52846BDE888
:10207000F0810A68531C0B601070704710B56FF048
:102080000400FFF753FA0A4800680A49B0FBF1F070
:10209000094908700846007800EB4001C1EBC01008
:1020A0004FF6FF7101EAC0000449088010BD00002E
:1020B0000000002000127A00600000206200002072
:1020C0000146114A12884A434FF0E0235A61002228
:1020D0009A611A46126942F001021A6100BF4FF07C
:1020E000E022106900F001021AB100F48032002AE7
:1020F000F5D04FF0E022126922F001024FF0E02308
:102100001A6100229A617047620000200146114A5C
:1021100012784A434FF0E0235A6100229A611A462E
:10212000126942F001021A6100BF4FF0E02210690B
:1021300000F001021AB100F48032002AF5D04FF00D
:10214000E022126922F001024FF0E0231A6100221E
:102150009A6170476000002000BF054A128802F0B3
:102160004002002AF9D0C2B2014B1B1D1A807047F1
:102170000038014010B5FEF751FE7020FEF7A2FEB8
:10218000FFF70AF90C490870E120FEF79BFEFFF704
:1021900003F9094908700820FEF794FEFFF7FCF8E0
:1021A000054908700020FEF78DFEFFF7F5F802499B
:1021B0000870FEF761FE10BD28000020FFF75EFFEB
:1021C0004FF4E13000F020FAFEF7C2FEFEF7E3FE26
:1021D000FEF762FF0020FEF727FF08E000F0C0F9DD
:1021E0000020FEF721FF40F2DC50FFF769FFF5E722
:1021F0002DE9FC474FF0000A07E00020B64901F83E
:102200000A000AF1010000F0FF0ABAF1060FF4DB40
:10221000FEF704FE7120FEF755FEFFF7BDF8AF494B
:102220000870FEF7B3FDAC490870FFF747F9FEF7F9
:10223000ADFDA9494870FFF741F9FEF7A7FDA64992
:102240008870FFF73BF9FEF7A1FDA349C870FFF7BF
:1022500035F9FEF79BFDA0490871FFF72FF9FEF74E
:1022600095FD9D494871FFF7F5F8FEF705FE9A4880
:10227000007800F0680008284ED1974840789849C7
:10228000086095488078096840EA01209449086010
:102290009148C078096840EA0120914908600846E1
:1022A000006800090860084600684FF47A714843E6
:1022B000000D8B4908608848C0788A490860084644
:1022C000007800F00F00086083480079096840EA50
:1022D00001208449086080484079096840EA01206B
:1022E00080490860084600684FF4FA614843891045
:1022F000C1EB10507B49086079480088000A7A4990
:10230000087077480078487076480088000A88701E
:1023100074480078C87008E0FF207349087048705E
:102320008870C87071A0FFF72BFA71A0FFF728FA28
:102330006C4800680A21B0FBF1F201FB1204694805
:102340000068B0FBF1F0B0FBF1F201FB120565484B
:1023500000686421B0FBF1F623462A46314665A0A9
:10236000FFF70EFA5E4800680A21B0FBF1F201FBAC
:1023700012045B480068B0FBF1F0B0FBF1F201FB26
:102380001205574800686421B0FBF1F623462A463F
:1023900031465CA0FFF7F4F955A0FFF7F1F9514879
:1023A00000680A21B0FBF1F05A4908604D48006806
:1023B0000A21B0FBF1F201FB1200574908700846F0
:1023C0000078FDF7E9FF0646544A554BFDF761FFDB
:1023D00004460D464F480068FDF7CDFF22462B46C8
:1023E000CDE90001FDF7AEFE8046FDF7F5FF4D4952
:1023F00008603B4800680A21B0FBF1F04A490860D8
:10240000374800680A21B0FBF1F201FB120047498E
:10241000087008460078FDF7BFFF06463F4A404B6C
:10242000FDF737FF04460D463F480068FDF7A3FF60
:10243000804622462B46FDF785FECDE90001FDF7DB
:10244000CBFF3B49086037480068FDF7B2FF044600
:1024500022460B4637A13948FFF7A2F934480068F5
:10246000FDF7A7FF044622460B4632A13448FFF78A
:1024700097F9012033A31022002100901046FEF7A7
:1024800017FA012032A31022142100901046FEF703
:102490000FFA01201023294A142100903520FEF75D
:1024A0003BFC01202CA31022262100901046FEF7B1
:1024B000FFF901201023224A262100903520FEF743
:1024C0002BFC40F2DC50FFF7FBFD40F2DC50FFF745
:1024D000F7FDBDE8FC87000029000020280000204F
:1024E0003000002034000020400000206C7979008A
:1024F0000D0A0000CEC2B6C83A256425642E2564B4
:1025000000000000CAAAB6C83A256425642E2564D6
:102510000000000050000020380000209A9999998E
:102520009999B93F58000020540000203C00002039
:102530005C000020252E3166000000006C000020A9
:102540008A000020CEC2CAAAB6C8CFD4CABE000034
:10255000CEC2B6C800000000CAAAB6C8000000007B
:1025600010B50A20FFF7ACFD00F014F80A20FFF7C1
:10257000A7FDFFF7FFFD0A20FFF7A2FD00F020F8FE
:102580005020FFF79DFDFFF733FE0520FFF798FD74
:1025900010BD000010B5FEF741FC7020FEF792FC64
:1025A000FEF7FAFE05490870BA20FEF78BFCFEF72D
:1025B000F3FE02490870FEF75FFC10BD2800002002
:1025C00010B5FEF72BFC7020FEF77CFCFEF7E4FE56
:1025D0000C490870AC20FEF775FCFEF7DDFE0949DA
:1025E00008703320FEF76EFCFEF7D6FE0549087032
:1025F0000020FEF767FCFEF7CFFE02490870FEF7E9
:102600003BFC10BD2800002010B586B00446012117
:1026100044F20400FEF746FE4FF40070ADF81400DB
:1026200003208DF8160018208DF8170005A91C4806
:10263000FEF7AFF84FF48060ADF8140004208DF879
:10264000170005A91648FEF7A4F825208DF800000C
:1026500003208DF801008DF8020001208DF80300A1
:102660006846FEF79FFC01940020ADF80800ADF825
:102670000A00ADF80C00ADF810000C20ADF80E000B
:1026800001A90848FFF708F8012240F22551054842
:10269000FEF7DCFF01210348FEF7A2FF06B010BDE4
:1026A0000008014000380140000000000000000068
:1026B0001010101000100000282828000000000052
:1026C00028287C287C282800103C503814781000DA
:1026D000004C2C10086060003048502054483400F2
:1026E00030102000000000000810202020100800FA
:1026F0002010080808102000001054385410000062
:102700000010107C101000000000000000180810DD
:10271000000000007C0000000000000000303000DD
:10272000000408102040000038444C546444380031
:1027300010301010101038003844040810207C00AD
:102740007C08100804443800081828487C08080051
:102750007C40780404443800182040784444380011
:102760007C040810202020003844443844443800B9
:102770003844443C04083000003030003030000061
:1027800000303000301020000810204020100800D9
:1027900000007C007C0000002010080408102000CD
:1027A0003844040810001000384404345C443800F5
:1027B000102844447C4444007844447844447800DD
:1027C0003844404040443800704844444448700015
:1027D0007C40407840407C007C4040784040400055
:1027E0003844405C44443C004444447C44444400F9
:1027F00038101010101038001C0808080848300065
:1028000044485060504844004040404040407C00B4
:10281000446C545444444400444464544C44440080
:1028200038444444444438007844447840404000AC
:102830003844444454483400784444785048440070
:102840003C404038040478007C1010101010100038
:10285000444444444444380044444444442810001C
:102860004444445454542800444428102844440008
:1028700044444428101010007C04081020407C00C0
:1028800038202020202038000040201008040000BC
:102890003808080808083800102844000000000024
:1028A0000000000000007C00201008000000000074
:1028B000000038043C443C004040586444447800E4
:1028C00000003840404438000404344C44443C0088
:1028D000000038447C40380038242070202020003C
:1028E00000003C44443C04384040586444444400A4
:1028F0001000301010103800080018080808483080
:1029000040404850605048003010101010103800FF
:102910000000685454444400000058644444440097
:102920000000384444443800000058646458404073
:102930000000344C4C340404000058644040400013
:1029400000003C403804780020207020202418002B
:1029500000004444444C3400000044444428100027
:102960000000444454542800000044281028440027
:1029700000004444443C043800007C0810207C00E3
:102980001020204020201000001010101010100007
:102990002010100810102000000000205408000033
:1029A0000000000000000000000000000000000027
:1029B000000000181818181818180000181800003F
:1029C0000012362448000000000000000000000053
:1029D000000000242424FE484848FE4848480000DF
:1029E00000001038545450301C1414545438101033
:1029F00000000044A4A8A8A8541A2A2A2A440000C7
:102A000000000030484848506EA494888976000041
:102A100000606020C0000000000000000000000016
:102A2000000204080810101010101008080402001A
:102A30000040201010080808080808101020400066
:102A4000000000001010D63838D61010000000002A
:102A50000000000010101010FE10101010000000F8
:102A6000000000000000000000000000606020C0C6
:102A700000000000000000007F00000000000000D7
:102A80000000000000000000000000006060000086
:102A90000000010202040408081010202040400039
:102AA00000000018244242424242424224180000E0
:102AB000000000107010101010101010107C00009A
:102AC0000000003C4242420404081020427E000004
:102AD0000000003C42420418040202424438000054
:102AE000000000040C14242444447E04041E00004E
:102AF0000000007E4040405864020242443800001A
:102B00000000001C24404058644242422418000047
:102B10000000007E42440808101010101010000041
:102B20000000003C4242422418244242423C000041
:102B30000000001824424242261A020224380000F3
:102B40000000000000001818000000001818000025
:102B500000000000000018180000001818083000DD
:102B600000000002040810204020100804020000A9
:102B7000000000000000FE000000FE000000000059
:102B8000000000402010080402040810204000004B
:102B90000000003C424262020408080018180000CD
:102BA00000000038445AAAAAAAAAB4424438000035
:102BB0000000001010182828243C444242E700007E
:102BC000000000F8444444784442424244F8000083
:102BD0000000003E424280808080804244380000F5
:102BE000000000F8444242424242424244F800009F
:102BF000000000FE424848784848404242FE00003B
:102C0000000000FE424848784848404040E000004C
:102C10000000003C44448080808E8444443800009E
:102C2000000000E7424242427E42424242E7000048
:102C30000000007C1010101010101010107C00000C
:102C40000000003E0808080808080808080888F07E
:102C5000000000EE444850705048484444EE0000E4
:102C6000000000E0404040404040404042FE000044
:102C7000000000EE6C6C6C6C5454545454D600003C
:102C8000000000C7626252524A4A4A4646E20000C9
:102C900000000038448282828282828244380000AE
:102CA000000000FC424242427C40404040E00000C4
:102CB00000000038448282828282B2CA4C38060008
:102CC000000000F8444444784848444442E300008B
:102CD0000000003E4242402018040242427C0000B4
:102CE000000000FE9210101010101010103800009C
:102CF000000000E74242424242424242423C00005F
:102D0000000000E742424424242828181010000044
:102D1000000000D692929292AAAA6C444444000009
:102D2000000000E7422424181818242442E7000079
:102D3000000000EE44442828101010101038000045
:102D40000000007E840408081020204242FC00009D
:102D5000001E1010101010101010101010101E0077
:102D6000000040402020101008040402020201016B
:102D70000078080808080808080808080808780003
:102D80000008142200000000000000000000000005
:102D9000000000000000000000000000000000FF34
:102DA00000601000000000000000000000000000B3
:102DB000000000000000003C421E2242423F000092
:102DC000000000C040404058644242426458000045
:102DD000000000000000001C22404040221C0000B7
:102DE000000000060202021E22424242261B000090
:102DF000000000000000003C427E4040423C0000D9
:102E00000000000F1110107E10101010107C000038
:102E1000000000000000003E444438403C42423C78
:102E2000000000C04040405C6242424242E7000075
:102E3000000000303000007010101010107C0000F6
:102E40000000000C0C00001C04040404040444787A
:102E5000000000C04040404E4850684844EE00002A
:102E6000000000701010101010101010107C0000E6
:102E700000000000000000F64949494949ED000002
:102E800000000000000000DC6242424242E7000015
:102E9000000000000000003C42424242423C000070
:102EA00000000000000000D864424242645840E044
:102EB000000000000000001E22424242261A0207C3
:102EC00000000000000000EE3220202020F800006A
:102ED000000000000000003E42403C02427C000036
:102EE000000000000010107C10101010100C0000EA
:102EF00000000000000000C642424242463B000083
:102F000000000000000000E7422424281010000008
:102F100000000000000000D79292AAAA44440000DA
:102F2000000000000000006E24181818247600002D
:102F300000000000000000E742242428181010E0E0
:102F4000000000000000007E44081010227E0000F7
:102F50000003040404040408040404040404030037
:102F600008080808080808080808080808080808E1
:102F700000601010101010081010101010106000D9
:102F800000000000000020520C00000000000000C3
:102F9000CEC2000023F81208120883F84208420843
:102FA00013F8100027FCE4A424A424A424A42FFED6
:102FB0000000B6C8010000803FFE222022203FFC16
:102FC0002220222023E020002FF02410422041C0A4
:102FD0008630380ECAAA000027F81408140887F8AB
:102FE0004408440817F811202120E924252823301B
:102FF00021202FFE0000CFD400001FF01010101071
:103000001FF0101010101FF00440444424441448D2
:1030100014500440FFFE0000CABE00003FF800004C
:10302000000000000000FFFE010001001110110867
:1030300021044102810205000200D5D408000804E1
:1030400008847E4408280828FE100810282828280C
:103050002E442884280058004FFE8000CDF12040E7
:10306000202023FE2202FD04490049DE4A528A52F2
:103070004B52349A1094291049128212040ED4C66D
:1030800000003FF80000000000000000FFFE02000A
:10309000040004000840102020107FF820080008D9
:1030A000C8AB0100010002800440082010102FE886
:1030B000C106010001001FF00100010001007FFCBA
:1030C0000000B6AF004000407C40004001FC0044DE
:1030D000FE4420442044208448844484FD04450464
:1030E00002280410B5E70100010001003FF82108A3
:1030F000210821083FF82108210821083FF8210A6A
:103100000102010200FED7D300007FF8001000206A
:10311000004001800100FFFE0100010001000100EC
:103120000100010005000200BCBC1020102010208E
:1031300013FEFC201020102015FC18843088D04885
:1031400010501020105051882606CAF501000120A9
:10315000011001107FFC038005400540092011107B
:10316000210841048102010001000100CFB500F8EF
:103170003F000400082010403F800100061018089E
:103180007FFC010409201110210845040200CDB381
:1031900010401020202023FE4840F888110423FE10
:1031A0004092F890409000901912E112420E0400F3
:1031B000C9E8000021F0111011100110020EF400F6
:1031C00013F811081110109014A0184010A0031843
:1031D0000C06D6C37FFC44447FFC01007FFC010049
:1031E0001FF010101FF010101FF010101FF0101023
:1031F000FFFE0000D2F4020001003FF800000820AA
:103200000440FFFE00001FF0101010101FF01010FF
:1032100010101FF01010C1BF00001FF010101FF0A1
:103220001010FFFE00001FF011101FF011101FF012
:1032300001001FF001007FFCD1D5100008FE7F10B7
:103240002220147C7F4444544854525444544854DB
:1032500051544228442488423082C9AB08000800F7
:103260001FE020204040BFF82108210821083FF836
:1032700020002002200220021FFE0000CDF80000E6
:103280007FFC40044004421452944A544424442491
:103290004A544A5452946104400440144008C2E71E
:1032A0001080108020F821084B10FCA0104020A0B6
:1032B0004118FA0645F801081908E10841F8010823
:1032C000C8AB0000000000000038000030000068BB
:1032D0000000440000C2000181000300C00600702D
:1032E0000FFFFE10180860180000180000180000FA
:1032F000186003FF80001800001800001800001874
:10330000081FFFFC000000000000B6AF0000000036
:1033100000000001800001000061003F8100000109
:103320000000010C0007FC00310C3FC10C06010C31
:1033300004010C0C81080843081062081022082FB1
:10334000F4083814080008080011180020F800409C
:1033500030000000B5E70000000000000018000089
:1033600010000010000010000FFFF00810200810DF
:10337000200810200810200FFFE00810200810205F
:103380000810200810200FFFE008100000100800AF
:10339000100800100400180C000FF8000000D7D32C
:1033A0000000000000000000200FFFF0000060009F
:1033B000008000030000140000180000180000182E
:1033C0000C7FFFFE00180000180000180000180015
:1033D0000018000018000018000018000018000075
:1033E000F800003000000000BCBC00000004000039
:1033F00007018006010006010006010006C10C3F1E
:103400003FF006010006010006010006FFF807086C
:10341000103E08302604200604600602400602C062
:10342000060180060380060C601E103E0CE00C00B6
:103430000000CAF5000000000000001C0000198018
:103440000018E000186000182800181C3FFFE0007A
:103450003C00007C00005A0000DA000099000119CD
:10346000800318C006186004183808181E301808A1
:10347000401800001800001800000000C8AB000051
:1034800000000000000000030000000380000007AF
:10349000800000068000000C4000001C2000001886
:1034A00030000030180000600C0000C007000180F0
:1034B00003C0030002F807FFFF7C08018090300181
:1034C00080004001800000018000000181000001B7
:1034D000838001FFFFC00001800000018000000127
:1034E00080000001800000018000000180100001C8
:1034F00080381FFFFFFC0000000000000000B6AF96
:1035000000000000000000000000080000000E00A5
:1035100000000C00000C0C003FFE0C0010000C0022
:1035200000000C0000000C180000FFFC00020C184A
:1035300000070C183FFF8C1801C00C1801C00C18B4
:103540000180081803000818021018180608181837
:10355000040C101808061018100630102FFB20104D
:103560003E0360101002C0300000803000010C30BB
:10357000000203E0000C01E00010008000000000E9
:10358000B5E7000000000000000000030000000399
:10359000800000030000000300000003000000039F
:1035A000000007FFFFC0060300C0060300C00603BB
:1035B00000C0060300C0060300C0060300C007FFEA
:1035C000FFC0060300C0060300C0060300C00603D8
:1035D00000C0060300C007FFFFC00603008006030B
:1035E00000000003001000030008000300080003AF
:1035F00000180003801C0001FFF80000000000001C
:103600000000D7D300000000000000000000000010
:10361000000000C003FFFFE0000001E00000030025
:103620000000060000001800000030000001C0008B
:103630000001C000000180000001801000018038FE
:103640003FFFFFFC000180000001800000018000BE
:103650000001800000018000000180000001800066
:103660000001800000018000000180000001800056
:1036700000018000003F8000000700000002000001
:1036800000000000BCBC0000000000000000018041
:10369000080001C00E0001800C0001800C000180B8
:1036A0000C0001800C0001980C183FFFFFFC01800A
:1036B0000C0001800C0001800C0001800C00018CCA
:1036C0000C2001B3FFF001C080600F8080603D805E
:1036D00040C0318040C00180218001802180018074
:1036E000330001801E0001800C0001801E0001805B
:1036F00037000180E3C01F8380F8078E007C023012
:10370000000000000000CAF50000000000000000FA
:10371000000100000001C00000018C0000018700D2
:1037200000018380000181800001808000018030E1
:103730003FFFFFF81003C0000007C0000007A00013
:10374000000DA000000D90000019900000199800D5
:1037500000318C000061860000C1870000818380F9
:10376000018181C0030180F00401807C0801803860
:1037700010018010600180000001800000018000C5
:103780000001000000000000A83700080000002031
:103790006C000000C8170008143800086C000020F6
:1037A00004090000D817000800A24A040000000025
:1037B00000000000010203040607080900000000E1
:1037C00001020304010203040607080902040608B3
:1037D00000000000000000000000000000000000E9
:1037E000000000000000000000000000FA060A00CF
:1037F0000000000000FF00000000000000000000CA
:1038000000000000000000000000000000000000B8
:0438100000000000B4
:04000005080000ED02
:00000001FF
