:020000040800F2
:10000000A0080020A1010008C32B0008A9200008B7
:10001000C12B0008470F0008272F00080000000030
:10002000000000000000000000000000A12C0008FB
:10003000950F000800000000C52B00084B2D00089C
:10004000BB010008BB010008BB010008BB010008A0
:10005000BB010008BB010008BB010008BB01000890
:10006000BB010008BB010008BB010008BB01000880
:10007000BB010008BB010008BB010008BB01000870
:100080007D0F0008890F0008BB010008BB010008B4
:10009000BB010008BB010008BB010008BB01000850
:1000A000BB010008BB010008BB010008BB01000840
:1000B000BB010008BB010008BB010008AD2000081F
:1000C000BB010008BB010008BB010008BB01000820
:1000D000BB010008BB010008BB010008BB01000810
:1000E000BB010008BB010008BB01000800F002F8DA
:1000F00000F047F80AA090E8000C82448344AAF17B
:100100000107DA4501D100F03CF8AFF2090EBAE878
:100110000F0013F0010F18BFFB1A43F0010318473B
:100120007830000098300000103A24BF78C878C1B9
:10013000FAD8520724BF30C830C144BF04680C60ED
:10014000704700000023002400250026103A28BF35
:1001500078C1FBD8520728BF30C148BF0B60704739
:10016000642900F07D80002070471FB59DE80300E2
:1001700000F070FB00F062F91FBD10B500F0C7F988
:1001800010BD00F02AFA1146FFF7EFFF02F0EEFE75
:1001900000F02EFB03B4FFF7F0FF03BC00F0ECFC13
:1001A0000948804709480047FEE7FEE7FEE7FEE70B
:1001B000FEE7FEE7FEE7FEE7FEE7FEE70448054947
:1001C000054A064B70470000AD2D0008ED00000801
:1001D000A0020020A0080020A0040020A00400200D
:1001E0000FB4044910B503AA029800F0F9F810BC46
:1001F0005DF814FB940100202DE9F0410E46044601
:10020000002020622046E168884730B3252805D0C9
:10021000D4E901219047206A401CF2E7E1682046BA
:1002200000278847050018D0A5F14100192802D8F9
:1002300020354FF400673246294620462760FFF7F5
:100240008FFF40B1012804D0F61D26F007060836BE
:10025000D8E7361DD6E72846DAE7206ABDE8F08100
:100260002DE9F0410646002410687529314616A58F
:1002700010D0AFF30080002802DA404213A507E057
:1002800031688A0701D512A502E0490704D511A5F6
:10029000012401E0AFF3008000210A2206F12407C7
:1002A00009E0B0FBF2FCB0FBF2F302FB1C003030C3
:1002B00078541846491C0028F3D123462A46304674
:1002C000BDE8F04100F032B8000000002D00000051
:1002D0002B000000200000004FF0000200B5134684
:1002E00094469646203922BFA0E80C50A0E80C5056
:1002F000B1F12001BFF4F7AF090728BFA0E80C5007
:1003000048BF0CC05DF804EB890028BF40F8042BFF
:1003100008BF704748BF20F8022B11F0804F18BF6C
:1003200000F8012B70477047704770472DE9F04780
:100330000D4699469246044600F124080168880655
:1003400004D5E06921F01001216000E00120A842FD
:1003500001DD471B00E00027A1697A1902EB0900C3
:10036000081AA0612078C00602D42046AFF30080AE
:10037000002608E0D4E901211AF806009047206A17
:10038000401C761C20624E45F4DB2078C0060AD55E
:100390002046AFF3008006E0D4E9012130209047E9
:1003A000206A401C2062381EA7F10107F4DC07E038
:1003B000D4E9012118F805009047206A401C20620A
:1003C000281EA5F10105F3DC2046AFF3008020785C
:1003D000000602D50220BDE8F0870120FBE70000FF
:1003E000074B70B50D467B4400F011F804462846D3
:1003F00000F020F810B14FF0FF3070BD204670BD06
:100400005F2B000001694A1C02610878704700B543
:100410008FB0CDE901310021059105497944CDE93D
:10042000031011466846FFF7E7FE0FB000BD00005D
:10043000E5FFFFFF007B00F08000704710B54248E9
:100440005421FFF749FF41485421FFF745FF404839
:100450005421FFF741FF3F493B483C4A3F4B08606E
:100460003D490A603A491960531C0365481C1065F0
:10047000012008653B48344A39A1784400F01CF952
:1004800020B9384878440A3800F0BBF937482F4A79
:1004900035A1784400F010F920B9344878440A387E
:1004A00000F0AFF932482A4A2FA1784400F004F94D
:1004B00020B92F4878440A3800F0A3F94023224895
:1004C000DC000021224600F0D4F820B12548784411
:1004D000543800F096F91D4822464023002100F0D0
:1004E000C8F820B121487844543800F08AF91848F7
:1004F00022461023002100F0BCF8002806D01C483A
:100500007844BDE81040563800F07BB910BD104863
:1005100070B5006D20F001040B4800F043F90B4862
:1005200000F040F90A4800F03DF909E0206D20F0A4
:100530000105204600F036F9204600F073F82C46FD
:10054000002CF3D170BD0000400100209401002078
:10055000E8010020100000201400002018000020F6
:10056000720000000C2D000077000000F82C000045
:10057000E42C00000EB5CDE9000100F0DDFA029098
:1005800069460120ABBE0EBD08B569460090022049
:10059000ABBE08BD1FB58DE8070069460520ABBEA0
:1005A00004B010BD1FB58DE80F0069460620ABBE34
:1005B000F6E708B5694600900920ABBE08BD1CB53A
:1005C000CDE9000169460A20ABBE1CBD704708B5E5
:1005D000694600900C20ABBE08BD754600F018F9C6
:1005E000AE4605006946534620F00700854618B020
:1005F00020B5FFF7E3FDBDE820404FF000064FF0C7
:1006000000074FF000084FF0000B21F00701AC4647
:10061000ACE8C009ACE8C009ACE8C009ACE8C00966
:100620008D46704770B50446051F00F0F7F8006866
:10063000002C14BF446870BD002C18BFAC423CBFF6
:1006400020466468F8D301680A18AA4218BF4560BA
:1006500003D12A6805461144016028684119A14266
:100660001CBF6C6070BD61686960216808442860C7
:1006700070BD70B5C468A50713D0650211D4B2F57A
:10068000807F09D0B2F5007F06D0B2F5806F08D127
:10069000012300F1240106E05D1E6FF07F46B542A4
:1006A00001D3012070BD0161C361416024F4706118
:1006B0001143C160002070BD2DE9F0410C46074692
:1006C0001646104600F06EF82078611C61280AD0AA
:1006D000722802D077283CD102E00125002405E0F1
:1006E0000225042402E0082448F2020511F8010B57
:1006F0002B2806D0622809D011F8010C74280AD0E2
:100700000BE045F0030544F00204EFE745F0040573
:1007100044F00104EAE744F0100438462146FFF7AC
:1007200029FF411C15D00021316171604FF4007127
:10073000F560F1617061200704D530460222002186
:1007400000F0E6F8306D40F0010030653046BDE85D
:10075000F0810020FBE72DE9F0410D460646104CE4
:10076000206DC10704D0410804D020F00104F7E750
:1007700022460EE0542000F09CF807000ED0206DB9
:1007800047F001010843542120653846FFF7A4FDD6
:100790003A4629463046BDE8F0418DE70020D6E7CD
:1007A000400100202DE9F04704464FF000094FF0CA
:1007B000FF37C568D4E90486A80707D0204600F0B3
:1007C00057F93046FFF7E0FE002802DA3846BDE868
:1007D000F087280502D54046FFF724FF4C2120462C
:1007E000FFF77AFD206D20F0010020654846EEE716
:1007F00010B50446AFF300802046BDE81040FFF777
:10080000C9BC10B500F07EF9BDE8104000F074B925
:10081000004870473C0200207047000000487047C5
:1008200044020020704770477047704738B504464F
:100830000A4600206946AFF30080002808BF38BD93
:1008400002460099204600F0A4F9012038BD01209D
:1008500000F0F3B9F8B5AFF30080054600200C4670
:10086000102000BF0646A819A0420DD9324669469D
:100870000020AFF30080070008BF00F0DEF9009809
:10088000A04218BF0546C419FFF7C8FF0560074618
:10089000F01D20F007004619284600F073F9B44215
:1008A00008BFF8BDA21B31463868BDE8F84000F02B
:1008B00070B970B50646FFF7B1FF056806F10B0089
:1008C00020F00704B4429CBF002070BD2B466A682C
:1008D000BAB11068A04210D304F1080188423CBFAD
:1008E0005068586007D35168101941601168091B9E
:1008F000016058601460101D70BD13465268002AD4
:10090000E7D121462846FFF791FF0028DED170BDD0
:100910002DE9F041044616460D464769007B8007E5
:100920002ED03846FFF745FE50BB3EB3012E02D015
:10093000022E25D104E0204600F045F905441DE0D3
:100940003846FFF744FEE168002841F01001E160FD
:1009500005DA204600F058F80120BDE8F081C9030F
:100960000BD56268E16A914200D81146A269114430
:100970002269891A814200DD08460544002D01DA0A
:100980000220EAE7E16A6068E268814206D29103E8
:10099000E06203D522F4003141F01002A66900277D
:1009A000AE4213DCE16A814201D90B4600E0034606
:1009B00003EB060C2369ACEB030CAC4506DD81426E
:1009C00001D98C4600E084469C4505D1A76027608C
:1009D00042F02000A5620DE0AD1BE669AE1B81422E
:1009E000A66000D90846C01A281A2060581960600D
:1009F00022F0200003490840E060002084F848709D
:100A0000ABE70000BFCFD7FFC16821F4001141F070
:100A10008001C16000218160016070472DE9F047CD
:100A2000814614460E464FF0FF383248D568576964
:100A3000054209D03846A169FFF7C1FD002811DB46
:100A40002C48C0430540E5602B46324649463846AF
:100A5000FFF7A0FDA16920F00042B21A114400285E
:100A6000A16103D02046FFF7CFFF4046BDE8F087E5
:100A700070B504460569C06A6168884200D80846B6
:100A8000E16821F42011E160C90312D5A84208D021
:100A90002246411B2846FFF7C1FF10B14FF0FF303F
:100AA00070BD0020E562C4E90150E06820F48030A8
:100AB000E060002070BD10B50446C06820F0200042
:100AC000E060A16AA06988420DD02046FFF7D0FF00
:100AD000E06820F4405040F01000E060A06AA0619F
:100AE0002069E062606044F24001E0688843E060B1
:100AF00010BD000010000200002801D000F03CB83A
:100B00007047000010B5014602A000F07DF80120FA
:100B100010BD000053494752545245443A20526593
:100B20006469726563743A2063616E2774206F7024
:100B3000656E3A200000000010B5431C02E010F87A
:100B4000011B71B18107FAD14FF0013202C88C1A32
:100B50008C4314EAC211F9D0C01A0A0603D0C01E91
:100B600010BDC01A10BD0A0401D0801E10BD0902BC
:100B7000FCD0401E10BD000001491820ABBEFEE7AE
:100B80002600020000210160C0E90110704710201A
:100B90007047034640688C46002818BF88423CBF17
:100BA00003464068F8D318681844884207D00CF10F
:100BB000030020F00700001D411A521A0146081DCB
:100BC0000A60FFF72FBD10B50146C268900703D039
:100BD000900607D5886A0AE000F03EF8012101601E
:100BE000881E10BD8B69486818440B69C01A91F8BB
:100BF00048301BB191F84910401A10BD1103FCD5C3
:100C00000028FADD401E10BD70B505460C460A20CE
:100C100000E06D1C00F018F835B128780028F8D1F4
:100C200002E0641C00F010F814B120780028F8D11C
:100C3000BDE870400A2000F007B810B500F010F8C9
:100C4000BDE81040FFF758BF08B569468DF80000B1
:100C50000320ABBE08BD0000004870473C020020E6
:100C600010B5012805D0002103A0FFF7CDFF01201A
:100C700010BD09A1F8E7000053494752544D454DB6
:100C80003A204F7574206F662068656170206D652D
:100C90006D6F7279000000003A2048656170206D28
:100CA000656D6F727920636F727275707465640020
:100CB00010B501F0C9FE01F0AFFE702000F01EF982
:100CC00001F082FFA82000F019F901F07DFF00205B
:100CD00000F014F901F078FF002000F00FF901F0A6
:100CE00073FF02F020F80A2000F055F901F094FE9D
:100CF000702000F003F901F067FFBE2000F0FEF85D
:100D000001F062FF082000F0F9F801F05DFF00201B
:100D100000F0F4F801F058FF02F005F8BDE81040CB
:100D20000A2000F038B900002DE9F041002501F05B
:100D300079FF01F07FFF082001F0EBFF00240F4F47
:100D400001F068FF00F041F900268021384600F0EC
:100D50007DFB00B1012646EA4500C5B201F062FF05
:100D600000F033F9641CE4B2082CE9D301F062FF0F
:100D7000082001F0CEFF2846BDE8F081000C0140BC
:100D80002DE9F0418AB0002406468DF81C408DF80C
:100D900020408DF810408DF80C408DF818408DF8EB
:100DA00014408DF81C40274625460194029400F01B
:100DB0008AF8502000F0EFF840F2E45807E040468F
:100DC00001F0A7FF28466D1CADB2642803D200F0E5
:100DD00069F80006F3D401F01FFE712000F08EF8D0
:100DE00001F0F2FEFFF7A0FF8DF81C008DF8040063
:100DF00001F057FFFFF798FF8DF820008DF80500F0
:100E000001F04FFFFFF790FF8DF810008DF80600FE
:100E100001F047FFFFF788FF8DF80C008DF8070001
:100E200001F03FFFFFF780FF8DF818008DF80800F4
:100E300001F037FFFFF778FF8DF814008DF80900F7
:100E400001F02FFFFFF770FF8DF81C0001F045FF48
:100E500001F069FF062101A800F076F89DF81C104A
:100E600088421CD19DF820009DF81010074341EAEC
:100E700007209DF80C1041EA0020000930609DF821
:100E80000C009DF8181041EA00209DF8141041EA6A
:100E90000020C0F3130070600AB0BDE8F081346038
:100EA0007460F9E710B501F0B7FD712000F026F885
:100EB00001F08AFEFFF738FF044601F00EFF01F053
:100EC00032FF204610BD10B501F0A6FD702000F0E5
:100ED00015F801F079FEAC2000F010F801F074FE76
:100EE000332000F00BF801F06FFE002000F006F850
:100EF00001F06AFEBDE8104001F015BF70B505466F
:100F00008026002401F08EFE00F050F82E4202D020
:100F100001F09EFE01E001F0AFFE01F07BFE00F06B
:100F200045F86806641C050EE4B2082CEAD301F00B
:100F300079FE082001F0EDFE01F07CFEBDE8704076
:100F4000082001F0E6BEFEE770B50446FF2000224F
:100F500031250FE0A35C58400823060602D585EA38
:100F6000400000E040005B1EC0B213F0FF03F4D16C
:100F7000521CD2B28A42EDD370BD0000014800F08D
:100F80008BB80000B4000020014800F085B80000D4
:100F900070000020704710B503464FF47A7402E0E9
:100FA000204601F0B6FE5B1EFAD210BD00B501204E
:100FB00000F01DF8012000F01AF8012000F017F8E9
:100FC00001205DF804EB00F012B800B5012000F03C
:100FD0000EF8012000F00BF8012000F008F80120C5
:100FE00000F005F801205DF804EBAFF30080401E2F
:100FF000FDD2704772B6FEE710B590F821100024BC
:10100000022903D00421816301243DE001680A68BC
:1010100022F00E020A6001680A6822F001020A60EA
:101020001A4A0168914201D1012121E0174A143284
:10103000914201D110211BE0144A2832914201D182
:10104000891515E0114A3C32914201D189140FE013
:101050000E4A5032914202D14FF4803108E00B4ADF
:101060006432914202D14FF4801101E04FF080715F
:10107000064A083A5160012180F82110002180F8C9
:101080002010416B01B18847204610BD0800024086
:1010900090F82100704700002DE9F05FC16B0C68EB
:1010A00001680B68D0F840C0042202FA0CF2494DE6
:1010B000DFF824A1494E4A4FDFF828B1DFF828E1D4
:1010C00022422CD05A072AD50A68920603D40A680D
:1010D00022F004020A600168A94201D1042219E049
:1010E000514501D1402215E0B14202D14FF4806256
:1010F00010E0B94202D14FF480420BE0594502D1D1
:101100004FF4802206E0714502D14FF4800201E0E5
:101110004FF080622F4908394A60C16A3BE04FF0C6
:10112000020808FA0CF818EA040F4FF000094FF013
:10113000010235D05FEA837832D50B689B0605D46F
:101140000B6823F00A030B6080F821200168A94294
:1011500001D1022219E0514501D1202215E0B1420E
:1011600002D14FF4007210E0B94202D14FF40052A4
:101170000BE0594502D14FF4003206E0714502D12F
:101180004FF4001201E04FF00072124908394A6032
:1011900080F82090816A00291AD0BDE8F05F0847E6
:1011A000082505FA0CF5254212D01B0710D50B684F
:1011B00023F00E030B6090F84010C36B02FA01F1AC
:1011C0005960826380F8212080F82090016BE2E76B
:1011D000BDE8F09F080002401C00024030000240C1
:1011E00044000240580002406C00024030B528B371
:1011F00008C8134914221944B1FBF2F18900C163F4
:1012000010498163022141771A6843F6F0718A43DD
:10121000D0E900142143D0E902452C43214304695D
:10122000214344692143846921431143196000210A
:101230004163012242770177084630BD012030BD6D
:10124000F8FFFDBF0000024070B5044600F008F949
:101250000546601C02D004480078044400F000F900
:10126000401BA042FAD370BD000000202DE9F84FCA
:10127000DFF8B8910024A9F1040B23460F2709F1E8
:10128000040AABF1040EC9E00125A5402A40AA4298
:101290007DD1674ED1F804C0ACEB0608B44532D01E
:1012A00014DCBCF1030F3AD009DCBCF1000F2AD0EA
:1012B000BCF1010F1CD0BCF1020F31D11DE0BCF11B
:1012C000110F17D0BCF1120F2AD119E0B8F5881F01
:1012D00019D006DCB8F5803F15D0B8F5801F1FD1B6
:1012E00011E0B8F5001F0ED0B8F5041F18D10AE0C0
:1012F000CB6815E0CB681B1D12E0CB6808330FE00C
:10130000CB680C330CE08B682BB1012B4FF008033A
:1013100003D0456104E0042302E0056100E00023FE
:10132000FF2A01D8064601E000F104064FEA8405D1
:1013300001D9A5F12005D6F8008007FA05FC28EAB6
:101340000C0803FA05F548EA0508C6F800804D6860
:10135000ED0062D5374DAE6946F00106AE61AD696C
:1013600024F0030605F001050095334D06EB050C4E
:10137000DCF80850A607360F07FA06F825EA080534
:10138000DFF8B880404503D14FF0000817E044E093
:10139000DFF8AC80404502D14FF001080FE0DFF8E4
:1013A000A480404502D14FF0020808E0DFF89880A1
:1013B000404502D14FF0030801E04FF0040808FA5D
:1013C00006F848EA0508CCF808804D68D9F80060AE
:1013D000ED024D4601D5164300E096432E604D6860
:1013E000DAF80060AD02554601D5164300E0964399
:1013F0002E604D68DBF80060AD035D4601D51643F5
:1014000000E096432E604D68DEF80060ED037546FF
:1014100001D5164300E096432E60641C0D682A46F1
:10142000E5407FF431AFBDE8F88F000008040140CB
:1014300000001110001002400000014000080140AF
:10144000000C014000100140001401408068084079
:1014500000D0012070470AB1016170470904FBE721
:101460000148806870470000000000207047704706
:101470002DE9F047026800215368C66A90F83E40A3
:1014800090F83D50102C12D0402C10D0046C002C41
:101490007DD05469E443A6077AD4DE43B60577D4F9
:1014A000036C03B19169BDE8F04701F0E3B99769B6
:1014B00051694FF42A0CC9435FEAC1784FF02A49B9
:1014C00004D066452AD04E4528D010E0DE43B6054C
:1014D0000DD4C16A614501D1012103E0C16A4945CA
:1014E00001D10821C162BDE8F04701F029B90E071A
:1014F00016D4DE43B60513D4416CC9B21161416BF9
:1015000009B1896A29B9816B002907D0896A002944
:1015100004D00068416841F400614160BDE8F08793
:101520008E0706D4DE43B60503D4BDE8F04701F0CC
:101530005BB8FE43526876074FEA02521DD4002A78
:10154000ECDB0A0608D4DA43520505D4490705D571
:10155000BDE8F04700F0ECBF4907DFD4D943890567
:10156000DCD4212D05D0402CD8D1BDE8F04701F0C6
:101570002DB9BDE8F04700F099BF002ACEDB4A063E
:101580000BD4DA43520508D4490708D501E00DE031
:101590000EE0BDE8F04700F00FBF4907BED4D943C5
:1015A0008905BBD4BDE8F04700F098BE916970E7AB
:1015B000E10606D4D943890503D4BDE8F04701F01C
:1015C0007DB92821212D27D0292D25D0650655D478
:1015D000DD436D0552D4640752D590F83D30448DFB
:1015E000002C9BD01269446A2270426A521C4262EB
:1015F000428D521E4285428D002A8FD12A2B8DD1D9
:101600000268536823F4806353602222026380F8E7
:101610003D1000F075F981E7250623D4DD436D0503
:1016200020D4640720D590F83D30448D002CF2D0B2
:10163000446A24781461426A521C4262428D521EEE
:101640004285428D002AE6D1292BE4D102685368F5
:1016500023F4806353602122026380F83D1000F080
:1016600050F95BE76107D6D4D9438905D3D4418DBE
:101670000029D0D0416A097811610AE06107CAD413
:10168000D9438905C7D4418D0029C4D01169426A64
:101690001170416A491C4162418D491E41853DE7F7
:1016A0007047000070B5040025D094F83D00002577
:1016B00020B984F83C50204600F0BEF8242084F87D
:1016C0003D002068016821F0010101602068016887
:1016D00041F4004101602068016821F4004101608B
:1016E00000F03EFA4D4A6168914201D84C4900E051
:1016F0004C49884201D2012070BD4B492368B0FBA0
:10170000F1F15E6826F03F060E435E606368934227
:1017100006D94FF4967359434FF47A73B1FBF3F142
:101720002368491C1E6A26F03F063143196261682E
:10173000914210D84900401EB0FBF1F2521CC2F396
:101740000B02042A01D2042022E0B0FBF1F0401C7D
:10175000C0F30B001CE0A268F2B301EBC10303EB82
:101760000116431EB3FBF6F35B1C43F480431B05D9
:1017700049D092B301EBC10202EB0111401EB0FB54
:10178000F1F0401CC0F30B0040F4804040F40040F6
:101790002168CA694CF6FF739A431043C861D4E9C3
:1017A000071001432068026822F0C0021143016063
:1017B000D4E9030101432068826848F2FF339A4369
:1017C00011438160D4E9050108432168CA6822F009
:1017D000FF021043C86001E00EE016E020680168D7
:1017E00041F0010101602564202084F83D0025635B
:1017F00084F83E50002070BD01EB4106431EB3FB50
:10180000F6F35B1CB3E70120C2E701EB4101401E88
:10181000B0FBF1F0401CC0F30B00B7E7A08601005D
:1018200080841E0000093D0040420F007047704751
:101830007047704770470000F0B585B00024064639
:1018400000940194029403940068284988424AD184
:10185000274DA86940F00800A861A869694600F012
:1018600008000490C02000901220019003200390F3
:101870002048FFF7FBFCE86940F40010E861E869E4
:101880001E4D00F4001004901B48C5E90004802799
:10189000C5E902472C616C61AC612846EC61FFF739
:1018A000A5FC08B1FFF7A6FBB5636E62134D1248A5
:1018B0004435143801C5102091C5104845F8104929
:1018C00044306C61AC61EC61FFF790FC08B1FFF74C
:1018D00091FB7563002211461F206E6200F078F8BC
:1018E0001F2000F067F805B0F0BD00000054004074
:1018F00000100240000C01408000024070000020F7
:1019000070477047024881680278114481607047CF
:1019100000000020074810B5016841F01001016087
:10192000032000F075F80F2000F006F800F024F80E
:10193000002010BD0020024070B50D4D04464FF44C
:101940007A712878B1FBF0F00A490968B1FBF0F030
:1019500000F0DCFA48B9102C07D200222146501EB4
:1019600000F036F800206C6070BD012070BD0000F2
:10197000000000200C0000200C4808B5816941F0EF
:1019800001018161816901F001010091C16941F0AA
:101990008051C161C06900F08050009004484168E6
:1019A00021F0E06141F00071416008BD001002408B
:1019B00000000140002809DB00F01F0201219140D6
:1019C0004009800000F1E020C0F8001170470000DD
:1019D000F0B40E4B1B680C46C3F30223C3F107059A
:1019E000042D00D90425191D072901D2002300E088
:1019F000DB1E012606FA05F1491E214099409E4052
:101A0000761E16403143F0BC01F08EBA0CED00E0BA
:101A1000064900F0070208684FF6FF03184040EA45
:101A20000220034A10430860704700000CED00E0FC
:101A30000000FA052DE9F0470F46050061D0434E3E
:101A4000306800F00700B84209D2306820F0070083
:101A500038433060306800F00700B84251D1286840
:101A60003B4C810712D5400703D5606840F4E06025
:101A700060602878000703D5606840F460506060BB
:101A80006068A96820F0F000084360602878C0070B
:101A900028D06868012810D02168022810D0890752
:101AA00000292EDA616821F0030101436160FFF72C
:101AB000D7FC804641F288390DE021688903EFE7C1
:101AC0008901EDE7FFF7CCFCA0EB0801494502D9FD
:101AD0000320BDE8F0876068696800F00C00B0EB97
:101AE000810FEFD1306800F00700B8420BD93068A1
:101AF00020F0070038433060306800F00700B8423B
:101B000001D00120E5E72878400705D56068E9683D
:101B100020F4E060084360602878000706D560681C
:101B2000296920F4605040EAC100606000F038F894
:101B30006168084AC1F30311515CC8400649086056
:101B400006480068FFF7F8FE0020C2E700200240C8
:101B500000100240723100080C0000200400002038
:101B60000448054900684968044AC1F30221515CF0
:101B7000C84070470C00002000100240823100086D
:101B80000448054900684968044AC1F3C221515C10
:101B9000C84070470C00002000100240823100084D
:101BA0000E4A51680E4801F00C03042B11D0082B8B
:101BB0000FD10C48C1F38343C903C05C0AD55168F7
:101BC000084AC1F34041921E515C054A5043B0FBA4
:101BD000F1F070470449484370470000001002408C
:101BE00000127A006231000800093D002DE9F84F2B
:101BF000040070D02078C04DC00749D06868C0F399
:101C00008100012807D06868C0F38100022809D14B
:101C10006868C00306D52868800339D56068002845
:101C2000E7D035E06068B0F5803F0BD010B1B0F57B
:101C3000A02F11D0286820F480302860286820F474
:101C4000802002E0286840F480302860606890B10D
:101C5000FFF706FC06460AE0286840F4802028606A
:101C6000F0E700BFFFF7FCFB801B642873D82868EF
:101C70008003F7D50CE0FFF7F3FB064605E000BF55
:101C8000FFF7EEFB801B6428F0D828688003F7D4A8
:101C900020789A4E80074FF001094FF0000839D59F
:101CA000686810F00C0F07D06868C0F38100022844
:101CB00009D16868C00306D42868800714D5206954
:101CC000012808D110E02069B0B1C6F80090FFF7F4
:101CD000C7FB074605E00AE1FFF7C2FBC01B02286D
:101CE000C4D828688007F7D52868616920F0F80013
:101CF00040EAC10028600DE0C6F80080FFF7B0FBA5
:101D0000074604E0FFF7ACFBC01B022823D8286875
:101D10008007F7D4207800072CD57948A169D9B17C
:101D2000C0F80090FFF79CFB074604E0FFF798FB24
:101D3000C01B02280FD8686A8007F7D571484FF496
:101D4000FA510068B0FBF1F0009000BF0098411E0E
:101D50000091FAD20EE080E0C0F80080FFF780FB2F
:101D6000074604E0FFF77CFBC01B022875D8686AB1
:101D70008007F7D42078400760D5E8690027C000C5
:101D800008D4E86940F08050E861E869012700F074
:101D9000805000905C480168C90513D401688346EF
:101DA00041F480710160FFF75BFB824606E000BFF3
:101DB000FFF756FBA0EB0A0064284ED8DBF80000C2
:101DC000C005F5D5E06801280AD008B1052813D070
:101DD000286A20F001002862286A20F0040002E04E
:101DE000286A40F001002862E06841F2883B98B11F
:101DF000FFF736FB82460BE0286A40F004002862B9
:101E0000EEE700BFFFF72CFBA0EB0A0159455AD8BB
:101E1000286A8007F6D50CE0FFF722FB824605E032
:101E2000FFF71EFBA0EB0A0159454CD8286A800732
:101E3000F6D41FB1E86920F08050E861E06988B30A
:101E40006968C1F38101022944D00228C6F8608084
:101E500004D0FFF705FB044638E034E0FFF700FB51
:101E6000074604E0FFF7FCFAC01B02282BD82868BD
:101E70008001F7D4206AB0F5803F05D16868A16879
:101E800020F4003008436860D4E908010843696819
:101E900021F4741108436860C6F86090FFF7E0FA17
:101EA000044606E025E000BFFFF7DAFA001B02282F
:101EB00009D828688001F7D51BE000BFFFF7D0FAEA
:101EC000001B022802D90320BDE8F88F2868800192
:101ED000F4D40EE00128F7D06868226A00F480315B
:101EE000914204D1616A00F47010884201D001204F
:101EF000EAE70020E8E7000000100240000042424C
:101F0000800442420C0000200070004010B5401ECA
:101F1000B0F1807F01D3012010BD4FF0E02460615B
:101F20000F21601701F000F80020A0610720206158
:101F3000002010BD70B5040004D094F841000025C5
:101F400010B106E0012070BD84F84050204600F03A
:101F500023F8242084F841002068C16821F400514E
:101F6000C160204600F04AFF2068016921F49041D9
:101F700001612068416921F02A0141612068C1683E
:101F800041F40051C1606564202084F8410084F868
:101F900042006563002070BD30B585B00024009418
:101FA00001940294039400681449884224D114488F
:101FB000816941F480418161816901F4804104912A
:101FC000816941F00401816180690E4D00F00400D7
:101FD00004904FF4007000900220019003200390C1
:101FE00069462846FFF742F92815CDE900046946FD
:101FF00028460294FFF73AF905B030BD0038014099
:1020000000100240000801402DE9F843044690F812
:102010004100984616460D46202802D00220BDE811
:10202000F88385B17EB100206064212084F84100EE
:10203000FFF716FAA6848146E684A0682027B0F54B
:10204000805F02D003E00120E9E7206910B12E464D
:1020500000250EE000260CE08021204600F02AFF3B
:10206000A8B9C6B116F8010B21684860E08C401E83
:10207000E084E08C4B464FF00002CDF80080002851
:10208000EAD14FF04001204600F014FF40B184F83F
:1020900041700320C3E735F8020BC0F30800E3E703
:1020A00084F841700020BAE7FEE700000148FFF71E
:1020B000DFB900001C00002038B5406A002190F80C
:1020C0003D202B4B46F2A8141B68B3FBF4F3C3EB83
:1020D000C30303EB830300933BB15B1E00930368D0
:1020E0001B689B0505D5009BF6E7036C43F02003B6
:1020F0000364436B03B19962836B03B19962036814
:102100001C6824F480641C604185436B03B15963EF
:10211000836B03B1596303681C6824F001041C60DD
:1021200090F83D402023602C0BD0282434EA020292
:102130000FD080F83D3080F83E1000BFFFF7B0FAB6
:1021400038BD80F83D3080F83E100164FFF78EF90D
:1021500038BD0268136843F0010313600268136816
:1021600043F480631360016380F83D40E6E70000BC
:102170000C00002000684169C943090601D4002110
:102180000161704770B5044690F83D0094F83E1028
:10219000102901D0402906D1222804D121680A68DB
:1021A00022F400620A60282131EA00024FF00005A3
:1021B0004FF0200626D021684968090505D460281B
:1021C00003D084F83D6084F83E5025632068416860
:1021D000090537D5416821F400614160606B90F8D2
:1021E00021203C49012A11D04163606BFEF704FFB6
:1021F00038B32068016821F00101016084F83D6076
:10220000606B1CE0256384F83D10DFE7A06B416341
:10221000A06BFEF7F1FEA0B120684169C9434906F1
:1022200005D40069616A0870606A401C60622068B9
:10223000016821F00101016084F83D60A06B416BF1
:10224000884710E094F83D10602910D04169C943D7
:10225000490605D40069616A0870606A401C6062C2
:102260002046FFF71DFA206CC1071CD115E084F849
:102270003D6025644169C943490605D40069616A26
:102280000870606A401C60622068016821F00101EA
:1022900001602046FFF7EAF8E5E7810703D441072C
:1022A00001D4000704D52068416821F4E061416051
:1022B00094F83D00216C49070BD5282809D1064820
:1022C000E062256384F83D6084F83E502046FFF7C5
:1022D000ADFA70BDB92000080000FFFF10B5C26A5A
:1022E000438D0168042B06D0438D032B08D0438D0A
:1022F000022B1DD012E04A6822F480624A600CE092
:102300004B6823F480634B60042A06D0022A04D071
:1023100001680A6822F480620A6001680969426AF9
:102320001170416A491C4162418D491E418510BDB1
:10233000012A34D0102A32D0042A34D0022A32D0D2
:102340000B6843F400730B6001680969436A1970F4
:10235000416A491C4162438D5B1E438503681B69CA
:102360000B70416A491C4162418D491E41850168DB
:102370004B6823F440734B60202180F83D1090F8A7
:102380003E300021402B80F83E1010D0082A02D0A9
:10239000202A00D012210163FFF749FA10BD0B6813
:1023A00023F48063CFE70B6843F48063CBE70163DA
:1023B000FFF73FFA10BD000038B590F83D10222914
:1023C00010D1C36A418D03290DD901680969426A98
:1023D0001170416A491C4162418D491E4185418D00
:1023E000032906D038BDC26A022A02D0012906D0CC
:1023F00029B10068416821F48061416038BD2A4AF2
:1024000046F2A81400211268B2FBF4F202EB820239
:10241000009202682024009D6D1E009526D015684C
:10242000AD05F8D4156825F4806515600268556817
:1024300025F4E065556002681269456A2A70426AAF
:10244000521C4262428D521E428580F83D4090F8F7
:102450003E2080F83E10402A21D0082B02D0202BAD
:1024600000D012210163FFF7E2F938BD036C43F09D
:1024700020030364536823F4E06353600268126925
:10248000436A1A70426A521C4262428D521E428551
:1024900080F83D4080F83E10FFF702F938BD016337
:1024A000FFF7C7F938BD00000C00002010B5C26A64
:1024B00090F83D1021290BD1418D51B1416A02683C
:1024C00009781161416A491C4162418D491E41856B
:1024D00010BD20230021082A13D0202A11D012F584
:1024E000803F0ED00268546824F4E06454601122E6
:1024F000026380F83E1080F83D3000BFFFF798F986
:1025000010BD0268546824F4E064546002681468E2
:1025100044F400741460016380F83D3090F83E206C
:1025200080F83E10402AE9D1FFF784F910BD000081
:1025300010B590F83D1090F83E30C26A048DB4B1E9
:10254000212903D0402B11D122290FD1418DE1B394
:1025500090F83E10402942D0416A02680978116122
:10256000416A491C4162418D491E418510BD2129A6
:10257000E8D120230021082A13D0202A11D012F5F7
:10258000803F0ED00268546824F4E0645460112245
:10259000026380F83E1080F83D3000BFFFF748F935
:1025A00010BD0268546824F4E06454600268146842
:1025B00044F400741460016380F83D3090F83E20CC
:1025C00080F83E10402AE9D100E002E0FFF732F93E
:1025D00010BD0068416821F48061416010BDBDE814
:1025E000104000F0F3B8000078B590F83E50C26A91
:1025F000046B90F83D6000230168222E73D1066DB4
:102600000EB9402D6FD0056D1DB90569B5F5404F68
:102610001BD0458D95B3468D484D012E20D0448D5D
:10262000022C4DD00C6844F480640C6001684C6846
:10263000240579D5AA4273D0012A71D0082A6FD017
:10264000102A6DD0202A6BD06EE04A698A69009208
:102650000A6842F480720A60016D491C016578BD08
:10266000AA4214D10A6822F480620A6001684A68AA
:10267000120504D50A6822F4806217E0FFE74A6970
:102680008A6900920A6842F400720A6050E0082ADF
:1026900010D0202A0ED0122C0AD0042A03D0022AED
:1026A00001D0102AE6D10A6842F480620A603BE059
:1026B000012ADFD00A6822F480620A600168DEE73E
:1026C000042A11D0022A0FD0102A0DD00C6844F42D
:1026D00000640C6001684C698C6900940C6824F4F7
:1026E00080640C6008E025E00C6844F480640C60B1
:1026F00001684C698969009101684C68240517D507
:10270000AA4207D0012A05D0082A03D0102A01D0F6
:10271000202A0DD14A6842F480524A6008E0FFE75F
:102720004A6842F480524A6001684A6989690091A6
:10273000036578BD48698869009078BD0000FFFF97
:1027400090F83E10402910D00169B1F5804F19D0A2
:10275000016DA9B3016D012910D1416C5FF0F10247
:1027600001F4407142EAD11106E0016D0029416C8B
:1027700005D0C9B241F0010100680161704701F064
:10278000FE01F9E790F83D102129416C09D0C9B24A
:1027900041F0010102681161416B29B1896A49B9AF
:1027A00002E001F0FE01F5E7816B0029E6D0896ABD
:1027B0000029E3D00068416841F40061416070473E
:1027C000FFE7416CF02201F44071CBE710B590F8BF
:1027D0003D10026D4AB1026D012A14D0026D022A29
:1027E00016D0BDE81040FFF7C5BCC16C0129816C53
:1027F00002D0C1F3072108E00268C9B21161016D7E
:10280000891C016510BD816CC9B20268116123E0A9
:1028100022291CD0428D0AB1212920D0428D002AC4
:10282000F0D12129EED101684A6822F4E0624A60C1
:1028300001680A6842F400720A60002101632022E4
:1028400080F83D2080F83E10FEF7F4FF10BD0168CF
:102850000A6842F480720A60016D491CD1E7416A3E
:10286000026809781161416A491C4162418D491E23
:10287000418510BD38B50C4690F83D200021282533
:10288000954302680B4605D051699169009180F823
:102890003C3038BD556825F480655560E2435407E7
:1028A00000D50121120601D5828900E0028B80F853
:1028B0003C3092B2FEF7DBFD38BD0000F8B590F871
:1028C0003D6004460068416821F4E0614160206891
:1028D000002541690091016841F001010160206813
:1028E000016821F48061016020684168090520D5F4
:1028F000474F222E48D02A2E46D0616B096849687E
:102900006185618D19B1216C41F004012164416838
:1029100021F400614160606BFEF7BAFB012808D02A
:10292000606B4763606BFEF767FB10B1606B416BD8
:102930008847608D08B320684169C943490708D4B6
:102940000069616A0870606A401C6062608D401EA8
:10295000608520684169C943490608D40069616AF5
:102960000870606A401C6062608D401E6085608DEA
:1029700018B1206C40F004002064206C00B32046A5
:10298000BDE8F840FFF7FEBBA16B096849686185A7
:10299000618D19B1216C41F004012164416821F479
:1029A00000614160A06BFEF773FB0128C1D0A06BF2
:1029B0004763A06BFEF720FB0028BAD0A06BB6E7F8
:1029C0002A2E06D12563282084F83D002046FEF7F4
:1029D00097FF94F83D10202028290DD0216B222943
:1029E00001D0222E07D1256384F83D0084F83E50A3
:1029F0002046FEF785FFF8BD0649E162256384F8AD
:102A00003D0084F83E502046FEF710FFF8BD000060
:102A1000B92000080000FFFF10B500F019F90820E8
:102A200000F077F900F0F6F8082000F072F900F0F5
:102A300023F9082000F06DF900F0F4F8BDE810402B
:102A4000082000F066B900007FB501248020CDE9A0
:102A500000040D4E0225694603953046FEF706FC3C
:102A6000012280213046FEF7F6FC4020CDE900042B
:102A7000694603953046FEF7F9FB01228021304676
:102A8000FEF7E9FC7FBD0000000C01400D4808B5D1
:102A9000416941F0010141614069002200F00100FB
:102AA000009011461020FEF793FF1020FEF782FFE2
:102AB000002211461120FEF78BFFBDE808401120CF
:102AC000FEF778BF0010024070B586B000241C48A5
:102AD0000094019402940394816941F01001816192
:102AE000816901F010010491816941F02001816147
:102AF000816901F020010491816941F00401816143
:102B0000816901F004010491816941F0080181614A
:102B100080690C4E00F008004FF40055049000222C
:102B200029463046FEF797FC01200095CDE90104C7
:102B30000220039069463046FEF798FB06B070BD50
:102B400000100240001001400D4810B50B49016013
:102B50000C49416000214FF480428160C0E90312BA
:102B600041618161C1610162FEF79CFD002803D0D3
:102B7000BDE81040FEF73EBA10BD00000054004012
:102B80001C000020A08601000C4810B50A49016015
:102B90004FF4E1314160002181600C22C160C0E945
:102BA00004128161C161FFF7C5F9002803D0BDE8B7
:102BB0001040FEF71FBA10BD00380140F800002099
:102BC000FEE7FEE77047000070B5002400F02AF829
:102BD00000F030F8082000F09CF800F01BF8082006
:102BE00000F097F80A4D01E0641CA4B28021284649
:102BF000FEF72CFC08B1642CF6D3642C06D000F050
:102C000011F8082000F085F8012070BD002070BD8B
:102C1000000C0140012240210148FEF71CBC0000CD
:102C2000000C0140002240210148FEF714BC0000C6
:102C3000000C01401FB50020019080200090022070
:102C4000039069460148FEF711FB1FBD000C0140CF
:102C50001FB501200190802000900220054C0390B8
:102C600069462046FEF702FB012280212046FEF73E
:102C7000F2FB1FBD000C01401FB501200190802018
:102C800000900220054C039069462046FEF7EEFABC
:102C9000002280212046FEF7DEFB1FBD000C014014
:102CA000704710B5FFF7BEFF082000F032F8FFF7BD
:102CB000E3FF082000F02DF8FFF7ACFF082000F03C
:102CC00028F8FFF7AFFF082000F023F8FFF7B2FF66
:102CD000BDE81040082000F01CB810B5FFF7A2FFB7
:102CE000082000F016F8FFF7B3FF082000F011F8F5
:102CF000FFF790FF082000F00CF8FFF793FF082083
:102D000000F007F8FFF7B8FFBDE810400820AFF368
:102D1000008000B5801E020004D00120FEF767F994
:102D2000521EFAD100BD10B5FFF7A6FF0820FFF72D
:102D3000F0FFFFF76FFF0820FFF7EBFFFFF788FFBB
:102D4000BDE810400820FFF7E4BFFEF7DBBD30B55B
:102D50008FB028216846FDF7BFFA14210AA8FDF7B5
:102D6000BBFA01210804CDE90010002402940225D9
:102D70000491CDE907504FF4E01009906846FEF742
:102D800035FF08B172B6FEE70F20CDE90A054FF412
:102D90008060CDE90C4002210AA80E94FEF74AFE9D
:102DA000002801D072B6FEE70FB030BD7047016851
:102DB0000C3151E8002F22F4907241E80023002BDF
:102DC000F5D10168143151E8002F22F0010241E8E9
:102DD0000023002BF5D1016B012909D101680C31C9
:102DE00051E8002F22F0100241E80023002BF5D11A
:102DF000202180F8421000210163704770B504461D
:102E000000680169E26821F44051114301612169C0
:102E1000A0680843616908432168CA6841F20C63ED
:102E20009A430243CA6020684169A26921F4407153
:102E3000114341611E492068884202D1FEF7A0FE7D
:102E400001E0FEF78DFE00EBC00101EB00126068AF
:102E500064218000B2FBF0F3B3FBF1F36FF01806CE
:102E60007343B2FBF0F5B2FBF0F605EB83053223BA
:102E700003EB0515B5FBF1F5B6FBF1F605F0F00532
:102E800005EB0615B2FBF0F6B2FBF0F0B0FBF1F08B
:102E90006FF01802504306EB800003EB0010B0FB0C
:102EA000F1F0216800F00F002844886070BD000038
:102EB000003801402DE9F843984617460D46044670
:102EC000089E24E0701C22D0FEF7CAFAA0EB08008E
:102ED000B0421AD8CEB12068C168490717D5802DF5
:102EE00015D0402D13D00168C94309070FD40168DC
:102EF0000025406800902046FFF759FF08206064D5
:102F000084F840500120BDE8F8830320FBE72068E7
:102F1000006835EA000004D00020B842D2D000207A
:102F2000F1E70120F9E7FEE70907090E002804DBB5
:102F300000F1E02080F80014704700F00F0000F16D
:102F4000E02080F8141D704713B54FF6FF7301227F
:102F500069460548FFF758F8034800680168C94307
:102F60004906FBD400981CBDF800002086B0FEF78F
:102F7000D1FCFFF7ECFEFFF7A7FDFFF787FDFFF79A
:102F8000E3FDFFF701FE0020039004903220FEF7DE
:102F90005BF9FDF78DFE4FF4FA70FDF7FCFF604E14
:102FA00064254FF47A770A2403A8FDF7E9FE039815
:102FB0004FF47A714843000D059004984900484346
:102FC00006EB1050009057A0FDF70AF96420FEF7B9
:102FD0003BF957A0FDF704F96420FEF735F954A03A
:102FE000FDF7FEF86420FEF72FF951A0FDF7F8F881
:102FF0006420FEF729F94EA0FDF7F2F86420FEF7F1
:1030000023F94BA0FDF7ECF86420FEF71DF948A06A
:10301000FDF7E6F86420FEF717F945A0FDF7E0F8A4
:103020006420FEF711F942A0FDF7DAF86420FEF7FC
:103030000BF93FA0FDF7D4F86420FEF705F93CA09A
:10304000FDF7CEF83BA0FDF7CBF83846FEF7FCF8CD
:10305000009890FBF4F104FB110390FBF4F090FB5B
:10306000F4F104FB1102009890FBF5F132A0FDF79A
:10307000B7F8059890FBF4F104FB110390FBF4F012
:1030800090FBF4F104FB1102059890FBF5F12EA0E2
:10309000FDF7A6F827A0FDF7A3F82FA0FDF7A0F8ED
:1030A0006420FEF7D1F822A0FDF79AF86420FEF71D
:1030B000CBF81FA0FDF794F86420FEF7C5F81CA01C
:1030C000FDF78EF86420FEF7BFF819A0FDF788F829
:1030D0006420FEF7B9F816A0FDF782F86420FEF729
:1030E000B3F813A0FDF77CF86420FEF7ADF810A04C
:1030F000FDF776F86420FEF7A7F80DA0FDF770F84D
:103100006420FEF7A1F80AA0FDF76AF86420FEF734
:103110009BF807A0FDF764F806A0FDF761F843E708
:103120000CFEFFFFD5FDD4DABCECB2E200000000DB
:103130002E0000000D0A0000CEC2B6C83A25642554
:10314000642E256400000000CAAAB6C83A2564258A
:10315000642E256400000000B5C8B4FD0000000026
:10316000010202030405060708090A0B0C0D0E0FE5
:103170001010000000000000000001020304060718
:10318000080900000000010203043A7474003A7454
:1031900074003A7474000000B83100080000002088
:1031A0001C00000028010008D43100081C00002089
:1031B0008408000044010008010000001000000025
:1031C0000000000000127A00000000000000000073
:0431D00000000000FB
:04000005080000ED02
:00000001FF
